{"contracts/dairbnb.sol":{"dairbnb":{"abi":[{"inputs":[],"name":"dairbnb__enterCorrectAmount","type":"error"},{"inputs":[],"name":"dairbnb__rentalAlreadyBooked","type":"error"},{"anonymous":false,"inputs":[{"indexed":false,"internalType":"uint256","name":"noOfGuests","type":"uint256"},{"indexed":false,"internalType":"uint256","name":"startDate","type":"uint256"},{"indexed":false,"internalType":"uint256","name":"endDate","type":"uint256"}],"name":"rentalBooked","type":"event"},{"anonymous":false,"inputs":[{"indexed":false,"internalType":"uint256","name":"rentalId","type":"uint256"},{"indexed":false,"internalType":"string","name":"name","type":"string"},{"indexed":false,"internalType":"string","name":"description","type":"string"},{"indexed":false,"internalType":"string[]","name":"imageURLs","type":"string[]"},{"indexed":false,"internalType":"uint256","name":"pricePerNight","type":"uint256"},{"indexed":false,"internalType":"string","name":"contact","type":"string"},{"indexed":false,"internalType":"string","name":"rentalAddress","type":"string"},{"indexed":false,"internalType":"uint256","name":"maxGuests","type":"uint256"},{"indexed":false,"internalType":"string","name":"city","type":"string"},{"indexed":false,"internalType":"string","name":"country","type":"string"},{"indexed":false,"internalType":"address","name":"owner","type":"address"}],"name":"rentalCreated","type":"event"},{"anonymous":false,"inputs":[{"indexed":false,"internalType":"string","name":"name","type":"string"},{"indexed":false,"internalType":"string","name":"dateOfBirth","type":"string"},{"indexed":false,"internalType":"string","name":"country","type":"string"},{"indexed":false,"internalType":"bytes32","name":"hashedPassword","type":"bytes32"},{"indexed":false,"internalType":"address","name":"userAddress","type":"address"}],"name":"userCreated","type":"event"},{"inputs":[{"internalType":"uint256","name":"_rentalId","type":"uint256"},{"internalType":"uint256","name":"_startDate","type":"uint256"},{"internalType":"uint256","name":"_endDate","type":"uint256"},{"internalType":"uint256","name":"noOfGuests","type":"uint256"}],"name":"bookRental","outputs":[],"stateMutability":"payable","type":"function"},{"inputs":[{"internalType":"uint256","name":"","type":"uint256"}],"name":"bookedRentalInfo","outputs":[{"internalType":"uint256","name":"noOfGuests","type":"uint256"},{"internalType":"uint256","name":"startDate","type":"uint256"},{"internalType":"uint256","name":"endDate","type":"uint256"}],"stateMutability":"view","type":"function"},{"inputs":[{"internalType":"uint256","name":"_rentalId","type":"uint256"},{"internalType":"string","name":"_name","type":"string"},{"internalType":"string","name":"_description","type":"string"},{"internalType":"string[]","name":"_imageURLs","type":"string[]"},{"internalType":"uint256","name":"_pricePerNight","type":"uint256"},{"internalType":"string","name":"_contact","type":"string"},{"internalType":"string","name":"_rentalAddress","type":"string"},{"internalType":"uint256","name":"_maxguests","type":"uint256"},{"internalType":"string","name":"_city","type":"string"},{"internalType":"string","name":"_country","type":"string"}],"name":"createRental","outputs":[],"stateMutability":"nonpayable","type":"function"},{"inputs":[{"internalType":"string","name":"_name","type":"string"},{"internalType":"string","name":"_dateOfBirth","type":"string"},{"internalType":"string","name":"_country","type":"string"},{"internalType":"string","name":"_password","type":"string"}],"name":"createUser","outputs":[],"stateMutability":"nonpayable","type":"function"},{"inputs":[{"internalType":"uint256","name":"_rentalId","type":"uint256"}],"name":"getRentalDetails","outputs":[{"components":[{"internalType":"uint256","name":"rentalId","type":"uint256"},{"internalType":"string","name":"name","type":"string"},{"internalType":"string","name":"description","type":"string"},{"internalType":"string[]","name":"imageURLs","type":"string[]"},{"internalType":"uint256","name":"pricePerNight","type":"uint256"},{"internalType":"string","name":"contact","type":"string"},{"internalType":"string","name":"rentalAddress","type":"string"},{"internalType":"uint256","name":"maxGuests","type":"uint256"},{"internalType":"string","name":"city","type":"string"},{"internalType":"string","name":"country","type":"string"},{"internalType":"address payable","name":"owner","type":"address"},{"internalType":"bool","name":"isbooked","type":"bool"}],"internalType":"struct dairbnb.rentalDetails","name":"","type":"tuple"}],"stateMutability":"view","type":"function"},{"inputs":[{"internalType":"uint256","name":"","type":"uint256"}],"name":"listedRentals","outputs":[{"internalType":"uint256","name":"rentalId","type":"uint256"},{"internalType":"string","name":"name","type":"string"},{"internalType":"string","name":"description","type":"string"},{"internalType":"uint256","name":"pricePerNight","type":"uint256"},{"internalType":"string","name":"contact","type":"string"},{"internalType":"string","name":"rentalAddress","type":"string"},{"internalType":"uint256","name":"maxGuests","type":"uint256"},{"internalType":"string","name":"city","type":"string"},{"internalType":"string","name":"country","type":"string"},{"internalType":"address payable","name":"owner","type":"address"},{"internalType":"bool","name":"isbooked","type":"bool"}],"stateMutability":"view","type":"function"},{"inputs":[{"internalType":"uint256","name":"","type":"uint256"}],"name":"users","outputs":[{"internalType":"string","name":"name","type":"string"},{"internalType":"string","name":"dateOfBirth","type":"string"},{"internalType":"string","name":"country","type":"string"},{"internalType":"bytes32","name":"hashedPassword","type":"bytes32"},{"internalType":"address","name":"userAddress","type":"address"}],"stateMutability":"view","type":"function"}],"devdoc":{"kind":"dev","methods":{},"version":1},"evm":{"bytecode":{"linkReferences":{},"object":"608060405234801561001057600080fd5b506122df806100206000396000f3fe6080604052600436106100705760003560e01c8063ab12d3bb1161004e578063ab12d3bb1461011c578063ad513a6e14610145578063e5806fdc1461018c578063eaca35b7146101cb57610070565b806317088b3414610075578063365b98b2146100b25780636f7fcddb146100f3575b600080fd5b34801561008157600080fd5b5061009c60048036038101906100979190611543565b6101e7565b6040516100a99190611864565b60405180910390f35b3480156100be57600080fd5b506100d960048036038101906100d49190611543565b6106f8565b6040516100ea95949392919061190a565b60405180910390f35b3480156100ff57600080fd5b5061011a60048036038101906101159190611aa7565b6108f6565b005b34801561012857600080fd5b50610143600480360381019061013e9190611c64565b610a79565b005b34801561015157600080fd5b5061016c60048036038101906101679190611543565b610cbc565b6040516101839b9a99989796959493929190611e34565b60405180910390f35b34801561019857600080fd5b506101b360048036038101906101ae9190611543565b611083565b6040516101c293929190611f09565b60405180910390f35b6101e560048036038101906101e09190611f40565b6110bd565b005b6101ef611319565b6002828154811061020357610202611fa7565b5b90600052602060002090600b0201604051806101800160405290816000820154815260200160018201805461023790612005565b80601f016020809104026020016040519081016040528092919081815260200182805461026390612005565b80156102b05780601f10610285576101008083540402835291602001916102b0565b820191906000526020600020905b81548152906001019060200180831161029357829003601f168201915b505050505081526020016002820180546102c990612005565b80601f01602080910402602001604051908101604052809291908181526020018280546102f590612005565b80156103425780601f1061031757610100808354040283529160200191610342565b820191906000526020600020905b81548152906001019060200180831161032557829003601f168201915b5050505050815260200160038201805480602002602001604051908101604052809291908181526020016000905b8282101561041c57838290600052602060002001805461038f90612005565b80601f01602080910402602001604051908101604052809291908181526020018280546103bb90612005565b80156104085780601f106103dd57610100808354040283529160200191610408565b820191906000526020600020905b8154815290600101906020018083116103eb57829003601f168201915b505050505081526020019060010190610370565b5050505081526020016004820154815260200160058201805461043e90612005565b80601f016020809104026020016040519081016040528092919081815260200182805461046a90612005565b80156104b75780601f1061048c576101008083540402835291602001916104b7565b820191906000526020600020905b81548152906001019060200180831161049a57829003601f168201915b505050505081526020016006820180546104d090612005565b80601f01602080910402602001604051908101604052809291908181526020018280546104fc90612005565b80156105495780601f1061051e57610100808354040283529160200191610549565b820191906000526020600020905b81548152906001019060200180831161052c57829003601f168201915b505050505081526020016007820154815260200160088201805461056c90612005565b80601f016020809104026020016040519081016040528092919081815260200182805461059890612005565b80156105e55780601f106105ba576101008083540402835291602001916105e5565b820191906000526020600020905b8154815290600101906020018083116105c857829003601f168201915b505050505081526020016009820180546105fe90612005565b80601f016020809104026020016040519081016040528092919081815260200182805461062a90612005565b80156106775780601f1061064c57610100808354040283529160200191610677565b820191906000526020600020905b81548152906001019060200180831161065a57829003601f168201915b50505050508152602001600a820160009054906101000a900473ffffffffffffffffffffffffffffffffffffffff1673ffffffffffffffffffffffffffffffffffffffff1673ffffffffffffffffffffffffffffffffffffffff168152602001600a820160149054906101000a900460ff1615151515815250509050919050565b6001818154811061070857600080fd5b906000526020600020906005020160009150905080600001805461072b90612005565b80601f016020809104026020016040519081016040528092919081815260200182805461075790612005565b80156107a45780601f10610779576101008083540402835291602001916107a4565b820191906000526020600020905b81548152906001019060200180831161078757829003601f168201915b5050505050908060010180546107b990612005565b80601f01602080910402602001604051908101604052809291908181526020018280546107e590612005565b80156108325780601f1061080757610100808354040283529160200191610832565b820191906000526020600020905b81548152906001019060200180831161081557829003601f168201915b50505050509080600201805461084790612005565b80601f016020809104026020016040519081016040528092919081815260200182805461087390612005565b80156108c05780601f10610895576101008083540402835291602001916108c0565b820191906000526020600020905b8154815290600101906020018083116108a357829003601f168201915b5050505050908060030154908060040160009054906101000a900473ffffffffffffffffffffffffffffffffffffffff16905085565b6000816040516020016109099190612073565b60405160208183030381529060405280519060200120905060016040518060a001604052808781526020018681526020018581526020018381526020013373ffffffffffffffffffffffffffffffffffffffff16815250908060018154018082558091505060019003906000526020600020906005020160009091909190915060008201518160000190805190602001906109a5929190611392565b5060208201518160010190805190602001906109c2929190611392565b5060408201518160020190805190602001906109df929190611392565b506060820151816003015560808201518160040160006101000a81548173ffffffffffffffffffffffffffffffffffffffff021916908373ffffffffffffffffffffffffffffffffffffffff16021790555050507fd1df4baffd516450d2167d875da5aec1e28b2255b23ea338a8e2301a5129ac2b8585858433604051610a6a95949392919061190a565b60405180910390a15050505050565b60026040518061018001604052808c81526020018b81526020018a81526020018981526020018881526020018781526020018681526020018581526020018481526020018381526020013373ffffffffffffffffffffffffffffffffffffffff1681526020016000151581525090806001815401808255809150506001900390600052602060002090600b0201600090919091909150600082015181600001556020820151816001019080519060200190610b35929190611392565b506040820151816002019080519060200190610b52929190611392565b506060820151816003019080519060200190610b6f929190611418565b506080820151816004015560a0820151816005019080519060200190610b96929190611392565b5060c0820151816006019080519060200190610bb3929190611392565b5060e08201518160070155610100820151816008019080519060200190610bdb929190611392565b50610120820151816009019080519060200190610bf9929190611392565b5061014082015181600a0160006101000a81548173ffffffffffffffffffffffffffffffffffffffff021916908373ffffffffffffffffffffffffffffffffffffffff16021790555061016082015181600a0160146101000a81548160ff02191690831515021790555050507f6e3191f85bd442add3b514fd809d5c356003ef30047a64ab858ad63bf13e4ed18a8a8a8a8a8a8a8a8a8a33604051610ca89b9a99989796959493929190612110565b60405180910390a150505050505050505050565b60028181548110610ccc57600080fd5b90600052602060002090600b0201600091509050806000015490806001018054610cf590612005565b80601f0160208091040260200160405190810160405280929190818152602001828054610d2190612005565b8015610d6e5780601f10610d4357610100808354040283529160200191610d6e565b820191906000526020600020905b815481529060010190602001808311610d5157829003601f168201915b505050505090806002018054610d8390612005565b80601f0160208091040260200160405190810160405280929190818152602001828054610daf90612005565b8015610dfc5780601f10610dd157610100808354040283529160200191610dfc565b820191906000526020600020905b815481529060010190602001808311610ddf57829003601f168201915b505050505090806004015490806005018054610e1790612005565b80601f0160208091040260200160405190810160405280929190818152602001828054610e4390612005565b8015610e905780601f10610e6557610100808354040283529160200191610e90565b820191906000526020600020905b815481529060010190602001808311610e7357829003601f168201915b505050505090806006018054610ea590612005565b80601f0160208091040260200160405190810160405280929190818152602001828054610ed190612005565b8015610f1e5780601f10610ef357610100808354040283529160200191610f1e565b820191906000526020600020905b815481529060010190602001808311610f0157829003601f168201915b505050505090806007015490806008018054610f3990612005565b80601f0160208091040260200160405190810160405280929190818152602001828054610f6590612005565b8015610fb25780601f10610f8757610100808354040283529160200191610fb2565b820191906000526020600020905b815481529060010190602001808311610f9557829003601f168201915b505050505090806009018054610fc790612005565b80601f0160208091040260200160405190810160405280929190818152602001828054610ff390612005565b80156110405780601f1061101557610100808354040283529160200191611040565b820191906000526020600020905b81548152906001019060200180831161102357829003601f168201915b50505050509080600a0160009054906101000a900473ffffffffffffffffffffffffffffffffffffffff169080600a0160149054906101000a900460ff1690508b565b6003818154811061109357600080fd5b90600052602060002090600302016000915090508060000154908060010154908060020154905083565b60011515600285815481106110d5576110d4611fa7565b5b90600052602060002090600b0201600a0160149054906101000a900460ff161515141561112e576040517f21bccb3400000000000000000000000000000000000000000000000000000000815260040160405180910390fd5b828261113a919061221b565b6002858154811061114e5761114d611fa7565b5b90600052602060002090600b02016004015461116a919061224f565b3414156112e1576002848154811061118557611184611fa7565b5b90600052602060002090600b0201600a0160009054906101000a900473ffffffffffffffffffffffffffffffffffffffff1673ffffffffffffffffffffffffffffffffffffffff166108fc349081150290604051600060405180830381858888f193505050501580156111fc573d6000803e3d6000fd5b5060016002858154811061121357611212611fa7565b5b90600052602060002090600b0201600a0160146101000a81548160ff0219169083151502179055506003604051806060016040528083815260200185815260200184815250908060018154018082558091505060019003906000526020600020906003020160009091909190915060008201518160000155602082015181600101556040820151816002015550507f23ed8bb044aff8cc7238e3f87cef1db22498333221dd02ca2336c8ef27527f8a8184846040516112d493929190611f09565b60405180910390a1611313565b6040517fc73d421d00000000000000000000000000000000000000000000000000000000815260040160405180910390fd5b50505050565b60405180610180016040528060008152602001606081526020016060815260200160608152602001600081526020016060815260200160608152602001600081526020016060815260200160608152602001600073ffffffffffffffffffffffffffffffffffffffff1681526020016000151581525090565b82805461139e90612005565b90600052602060002090601f0160209004810192826113c05760008555611407565b82601f106113d957805160ff1916838001178555611407565b82800160010185558215611407579182015b828111156114065782518255916020019190600101906113eb565b5b5090506114149190611478565b5090565b828054828255906000526020600020908101928215611467579160200282015b82811115611466578251829080519060200190611456929190611392565b5091602001919060010190611438565b5b5090506114749190611495565b5090565b5b80821115611491576000816000905550600101611479565b5090565b5b808211156114b557600081816114ac91906114b9565b50600101611496565b5090565b5080546114c590612005565b6000825580601f106114d757506114f6565b601f0160209004906000526020600020908101906114f59190611478565b5b50565b6000604051905090565b600080fd5b600080fd5b6000819050919050565b6115208161150d565b811461152b57600080fd5b50565b60008135905061153d81611517565b92915050565b60006020828403121561155957611558611503565b5b60006115678482850161152e565b91505092915050565b6115798161150d565b82525050565b600081519050919050565b600082825260208201905092915050565b60005b838110156115b957808201518184015260208101905061159e565b838111156115c8576000848401525b50505050565b6000601f19601f8301169050919050565b60006115ea8261157f565b6115f4818561158a565b935061160481856020860161159b565b61160d816115ce565b840191505092915050565b600081519050919050565b600082825260208201905092915050565b6000819050602082019050919050565b600061165083836115df565b905092915050565b6000602082019050919050565b600061167082611618565b61167a8185611623565b93508360208202850161168c85611634565b8060005b858110156116c857848403895281516116a98582611644565b94506116b483611658565b925060208a01995050600181019050611690565b50829750879550505050505092915050565b600073ffffffffffffffffffffffffffffffffffffffff82169050919050565b6000611705826116da565b9050919050565b611715816116fa565b82525050565b60008115159050919050565b6117308161171b565b82525050565b60006101808301600083015161174f6000860182611570565b506020830151848203602086015261176782826115df565b9150506040830151848203604086015261178182826115df565b9150506060830151848203606086015261179b8282611665565b91505060808301516117b06080860182611570565b5060a083015184820360a08601526117c882826115df565b91505060c083015184820360c08601526117e282826115df565b91505060e08301516117f760e0860182611570565b5061010083015184820361010086015261181182826115df565b91505061012083015184820361012086015261182d82826115df565b91505061014083015161184461014086018261170c565b50610160830151611859610160860182611727565b508091505092915050565b6000602082019050818103600083015261187e8184611736565b905092915050565b600082825260208201905092915050565b60006118a28261157f565b6118ac8185611886565b93506118bc81856020860161159b565b6118c5816115ce565b840191505092915050565b6000819050919050565b6118e3816118d0565b82525050565b60006118f4826116da565b9050919050565b611904816118e9565b82525050565b600060a08201905081810360008301526119248188611897565b905081810360208301526119388187611897565b9050818103604083015261194c8186611897565b905061195b60608301856118da565b61196860808301846118fb565b9695505050505050565b600080fd5b600080fd5b7f4e487b7100000000000000000000000000000000000000000000000000000000600052604160045260246000fd5b6119b4826115ce565b810181811067ffffffffffffffff821117156119d3576119d261197c565b5b80604052505050565b60006119e66114f9565b90506119f282826119ab565b919050565b600067ffffffffffffffff821115611a1257611a1161197c565b5b611a1b826115ce565b9050602081019050919050565b82818337600083830152505050565b6000611a4a611a45846119f7565b6119dc565b905082815260208101848484011115611a6657611a65611977565b5b611a71848285611a28565b509392505050565b600082601f830112611a8e57611a8d611972565b5b8135611a9e848260208601611a37565b91505092915050565b60008060008060808587031215611ac157611ac0611503565b5b600085013567ffffffffffffffff811115611adf57611ade611508565b5b611aeb87828801611a79565b945050602085013567ffffffffffffffff811115611b0c57611b0b611508565b5b611b1887828801611a79565b935050604085013567ffffffffffffffff811115611b3957611b38611508565b5b611b4587828801611a79565b925050606085013567ffffffffffffffff811115611b6657611b65611508565b5b611b7287828801611a79565b91505092959194509250565b600067ffffffffffffffff821115611b9957611b9861197c565b5b602082029050602081019050919050565b600080fd5b6000611bc2611bbd84611b7e565b6119dc565b90508083825260208201905060208402830185811115611be557611be4611baa565b5b835b81811015611c2c57803567ffffffffffffffff811115611c0a57611c09611972565b5b808601611c178982611a79565b85526020850194505050602081019050611be7565b5050509392505050565b600082601f830112611c4b57611c4a611972565b5b8135611c5b848260208601611baf565b91505092915050565b6000806000806000806000806000806101408b8d031215611c8857611c87611503565b5b6000611c968d828e0161152e565b9a505060208b013567ffffffffffffffff811115611cb757611cb6611508565b5b611cc38d828e01611a79565b99505060408b013567ffffffffffffffff811115611ce457611ce3611508565b5b611cf08d828e01611a79565b98505060608b013567ffffffffffffffff811115611d1157611d10611508565b5b611d1d8d828e01611c36565b9750506080611d2e8d828e0161152e565b96505060a08b013567ffffffffffffffff811115611d4f57611d4e611508565b5b611d5b8d828e01611a79565b95505060c08b013567ffffffffffffffff811115611d7c57611d7b611508565b5b611d888d828e01611a79565b94505060e0611d998d828e0161152e565b9350506101008b013567ffffffffffffffff811115611dbb57611dba611508565b5b611dc78d828e01611a79565b9250506101208b013567ffffffffffffffff811115611de957611de8611508565b5b611df58d828e01611a79565b9150509295989b9194979a5092959850565b611e108161150d565b82525050565b611e1f816116fa565b82525050565b611e2e8161171b565b82525050565b600061016082019050611e4a600083018e611e07565b8181036020830152611e5c818d611897565b90508181036040830152611e70818c611897565b9050611e7f606083018b611e07565b8181036080830152611e91818a611897565b905081810360a0830152611ea58189611897565b9050611eb460c0830188611e07565b81810360e0830152611ec68187611897565b9050818103610100830152611edb8186611897565b9050611eeb610120830185611e16565b611ef9610140830184611e25565b9c9b505050505050505050505050565b6000606082019050611f1e6000830186611e07565b611f2b6020830185611e07565b611f386040830184611e07565b949350505050565b60008060008060808587031215611f5a57611f59611503565b5b6000611f688782880161152e565b9450506020611f798782880161152e565b9350506040611f8a8782880161152e565b9250506060611f9b8782880161152e565b91505092959194509250565b7f4e487b7100000000000000000000000000000000000000000000000000000000600052603260045260246000fd5b7f4e487b7100000000000000000000000000000000000000000000000000000000600052602260045260246000fd5b6000600282049050600182168061201d57607f821691505b6020821081141561203157612030611fd6565b5b50919050565b600081905092915050565b600061204d8261157f565b6120578185612037565b935061206781856020860161159b565b80840191505092915050565b600061207f8284612042565b915081905092915050565b600082825260208201905092915050565b60006120a682611618565b6120b0818561208a565b9350836020820285016120c285611634565b8060005b858110156120fe57848403895281516120df8582611644565b94506120ea83611658565b925060208a019950506001810190506120c6565b50829750879550505050505092915050565b600061016082019050612126600083018e611e07565b8181036020830152612138818d611897565b9050818103604083015261214c818c611897565b90508181036060830152612160818b61209b565b905061216f608083018a611e07565b81810360a08301526121818189611897565b905081810360c08301526121958188611897565b90506121a460e0830187611e07565b8181036101008301526121b78186611897565b90508181036101208301526121cc8185611897565b90506121dc6101408301846118fb565b9c9b505050505050505050505050565b7f4e487b7100000000000000000000000000000000000000000000000000000000600052601160045260246000fd5b60006122268261150d565b91506122318361150d565b925082821015612244576122436121ec565b5b828203905092915050565b600061225a8261150d565b91506122658361150d565b9250817fffffffffffffffffffffffffffffffffffffffffffffffffffffffffffffffff048311821515161561229e5761229d6121ec565b5b82820290509291505056fea26469706673582212204243848be77645caa988ee2d5314ff1e8550b97430203fd68b4d0bed4f6c7b8764736f6c63430008080033","opcodes":"PUSH1 0x80 PUSH1 0x40 MSTORE CALLVALUE DUP1 ISZERO PUSH2 0x10 JUMPI PUSH1 0x0 DUP1 REVERT JUMPDEST POP PUSH2 0x22DF DUP1 PUSH2 0x20 PUSH1 0x0 CODECOPY PUSH1 0x0 RETURN INVALID PUSH1 0x80 PUSH1 0x40 MSTORE PUSH1 0x4 CALLDATASIZE LT PUSH2 0x70 JUMPI PUSH1 0x0 CALLDATALOAD PUSH1 0xE0 SHR DUP1 PUSH4 0xAB12D3BB GT PUSH2 0x4E JUMPI DUP1 PUSH4 0xAB12D3BB EQ PUSH2 0x11C JUMPI DUP1 PUSH4 0xAD513A6E EQ PUSH2 0x145 JUMPI DUP1 PUSH4 0xE5806FDC EQ PUSH2 0x18C JUMPI DUP1 PUSH4 0xEACA35B7 EQ PUSH2 0x1CB JUMPI PUSH2 0x70 JUMP JUMPDEST DUP1 PUSH4 0x17088B34 EQ PUSH2 0x75 JUMPI DUP1 PUSH4 0x365B98B2 EQ PUSH2 0xB2 JUMPI DUP1 PUSH4 0x6F7FCDDB EQ PUSH2 0xF3 JUMPI JUMPDEST PUSH1 0x0 DUP1 REVERT JUMPDEST CALLVALUE DUP1 ISZERO PUSH2 0x81 JUMPI PUSH1 0x0 DUP1 REVERT JUMPDEST POP PUSH2 0x9C PUSH1 0x4 DUP1 CALLDATASIZE SUB DUP2 ADD SWAP1 PUSH2 0x97 SWAP2 SWAP1 PUSH2 0x1543 JUMP JUMPDEST PUSH2 0x1E7 JUMP JUMPDEST PUSH1 0x40 MLOAD PUSH2 0xA9 SWAP2 SWAP1 PUSH2 0x1864 JUMP JUMPDEST PUSH1 0x40 MLOAD DUP1 SWAP2 SUB SWAP1 RETURN JUMPDEST CALLVALUE DUP1 ISZERO PUSH2 0xBE JUMPI PUSH1 0x0 DUP1 REVERT JUMPDEST POP PUSH2 0xD9 PUSH1 0x4 DUP1 CALLDATASIZE SUB DUP2 ADD SWAP1 PUSH2 0xD4 SWAP2 SWAP1 PUSH2 0x1543 JUMP JUMPDEST PUSH2 0x6F8 JUMP JUMPDEST PUSH1 0x40 MLOAD PUSH2 0xEA SWAP6 SWAP5 SWAP4 SWAP3 SWAP2 SWAP1 PUSH2 0x190A JUMP JUMPDEST PUSH1 0x40 MLOAD DUP1 SWAP2 SUB SWAP1 RETURN JUMPDEST CALLVALUE DUP1 ISZERO PUSH2 0xFF JUMPI PUSH1 0x0 DUP1 REVERT JUMPDEST POP PUSH2 0x11A PUSH1 0x4 DUP1 CALLDATASIZE SUB DUP2 ADD SWAP1 PUSH2 0x115 SWAP2 SWAP1 PUSH2 0x1AA7 JUMP JUMPDEST PUSH2 0x8F6 JUMP JUMPDEST STOP JUMPDEST CALLVALUE DUP1 ISZERO PUSH2 0x128 JUMPI PUSH1 0x0 DUP1 REVERT JUMPDEST POP PUSH2 0x143 PUSH1 0x4 DUP1 CALLDATASIZE SUB DUP2 ADD SWAP1 PUSH2 0x13E SWAP2 SWAP1 PUSH2 0x1C64 JUMP JUMPDEST PUSH2 0xA79 JUMP JUMPDEST STOP JUMPDEST CALLVALUE DUP1 ISZERO PUSH2 0x151 JUMPI PUSH1 0x0 DUP1 REVERT JUMPDEST POP PUSH2 0x16C PUSH1 0x4 DUP1 CALLDATASIZE SUB DUP2 ADD SWAP1 PUSH2 0x167 SWAP2 SWAP1 PUSH2 0x1543 JUMP JUMPDEST PUSH2 0xCBC JUMP JUMPDEST PUSH1 0x40 MLOAD PUSH2 0x183 SWAP12 SWAP11 SWAP10 SWAP9 SWAP8 SWAP7 SWAP6 SWAP5 SWAP4 SWAP3 SWAP2 SWAP1 PUSH2 0x1E34 JUMP JUMPDEST PUSH1 0x40 MLOAD DUP1 SWAP2 SUB SWAP1 RETURN JUMPDEST CALLVALUE DUP1 ISZERO PUSH2 0x198 JUMPI PUSH1 0x0 DUP1 REVERT JUMPDEST POP PUSH2 0x1B3 PUSH1 0x4 DUP1 CALLDATASIZE SUB DUP2 ADD SWAP1 PUSH2 0x1AE SWAP2 SWAP1 PUSH2 0x1543 JUMP JUMPDEST PUSH2 0x1083 JUMP JUMPDEST PUSH1 0x40 MLOAD PUSH2 0x1C2 SWAP4 SWAP3 SWAP2 SWAP1 PUSH2 0x1F09 JUMP JUMPDEST PUSH1 0x40 MLOAD DUP1 SWAP2 SUB SWAP1 RETURN JUMPDEST PUSH2 0x1E5 PUSH1 0x4 DUP1 CALLDATASIZE SUB DUP2 ADD SWAP1 PUSH2 0x1E0 SWAP2 SWAP1 PUSH2 0x1F40 JUMP JUMPDEST PUSH2 0x10BD JUMP JUMPDEST STOP JUMPDEST PUSH2 0x1EF PUSH2 0x1319 JUMP JUMPDEST PUSH1 0x2 DUP3 DUP2 SLOAD DUP2 LT PUSH2 0x203 JUMPI PUSH2 0x202 PUSH2 0x1FA7 JUMP JUMPDEST JUMPDEST SWAP1 PUSH1 0x0 MSTORE PUSH1 0x20 PUSH1 0x0 KECCAK256 SWAP1 PUSH1 0xB MUL ADD PUSH1 0x40 MLOAD DUP1 PUSH2 0x180 ADD PUSH1 0x40 MSTORE SWAP1 DUP2 PUSH1 0x0 DUP3 ADD SLOAD DUP2 MSTORE PUSH1 0x20 ADD PUSH1 0x1 DUP3 ADD DUP1 SLOAD PUSH2 0x237 SWAP1 PUSH2 0x2005 JUMP JUMPDEST DUP1 PUSH1 0x1F ADD PUSH1 0x20 DUP1 SWAP2 DIV MUL PUSH1 0x20 ADD PUSH1 0x40 MLOAD SWAP1 DUP2 ADD PUSH1 0x40 MSTORE DUP1 SWAP3 SWAP2 SWAP1 DUP2 DUP2 MSTORE PUSH1 0x20 ADD DUP3 DUP1 SLOAD PUSH2 0x263 SWAP1 PUSH2 0x2005 JUMP JUMPDEST DUP1 ISZERO PUSH2 0x2B0 JUMPI DUP1 PUSH1 0x1F LT PUSH2 0x285 JUMPI PUSH2 0x100 DUP1 DUP4 SLOAD DIV MUL DUP4 MSTORE SWAP2 PUSH1 0x20 ADD SWAP2 PUSH2 0x2B0 JUMP JUMPDEST DUP3 ADD SWAP2 SWAP1 PUSH1 0x0 MSTORE PUSH1 0x20 PUSH1 0x0 KECCAK256 SWAP1 JUMPDEST DUP2 SLOAD DUP2 MSTORE SWAP1 PUSH1 0x1 ADD SWAP1 PUSH1 0x20 ADD DUP1 DUP4 GT PUSH2 0x293 JUMPI DUP3 SWAP1 SUB PUSH1 0x1F AND DUP3 ADD SWAP2 JUMPDEST POP POP POP POP POP DUP2 MSTORE PUSH1 0x20 ADD PUSH1 0x2 DUP3 ADD DUP1 SLOAD PUSH2 0x2C9 SWAP1 PUSH2 0x2005 JUMP JUMPDEST DUP1 PUSH1 0x1F ADD PUSH1 0x20 DUP1 SWAP2 DIV MUL PUSH1 0x20 ADD PUSH1 0x40 MLOAD SWAP1 DUP2 ADD PUSH1 0x40 MSTORE DUP1 SWAP3 SWAP2 SWAP1 DUP2 DUP2 MSTORE PUSH1 0x20 ADD DUP3 DUP1 SLOAD PUSH2 0x2F5 SWAP1 PUSH2 0x2005 JUMP JUMPDEST DUP1 ISZERO PUSH2 0x342 JUMPI DUP1 PUSH1 0x1F LT PUSH2 0x317 JUMPI PUSH2 0x100 DUP1 DUP4 SLOAD DIV MUL DUP4 MSTORE SWAP2 PUSH1 0x20 ADD SWAP2 PUSH2 0x342 JUMP JUMPDEST DUP3 ADD SWAP2 SWAP1 PUSH1 0x0 MSTORE PUSH1 0x20 PUSH1 0x0 KECCAK256 SWAP1 JUMPDEST DUP2 SLOAD DUP2 MSTORE SWAP1 PUSH1 0x1 ADD SWAP1 PUSH1 0x20 ADD DUP1 DUP4 GT PUSH2 0x325 JUMPI DUP3 SWAP1 SUB PUSH1 0x1F AND DUP3 ADD SWAP2 JUMPDEST POP POP POP POP POP DUP2 MSTORE PUSH1 0x20 ADD PUSH1 0x3 DUP3 ADD DUP1 SLOAD DUP1 PUSH1 0x20 MUL PUSH1 0x20 ADD PUSH1 0x40 MLOAD SWAP1 DUP2 ADD PUSH1 0x40 MSTORE DUP1 SWAP3 SWAP2 SWAP1 DUP2 DUP2 MSTORE PUSH1 0x20 ADD PUSH1 0x0 SWAP1 JUMPDEST DUP3 DUP3 LT ISZERO PUSH2 0x41C JUMPI DUP4 DUP3 SWAP1 PUSH1 0x0 MSTORE PUSH1 0x20 PUSH1 0x0 KECCAK256 ADD DUP1 SLOAD PUSH2 0x38F SWAP1 PUSH2 0x2005 JUMP JUMPDEST DUP1 PUSH1 0x1F ADD PUSH1 0x20 DUP1 SWAP2 DIV MUL PUSH1 0x20 ADD PUSH1 0x40 MLOAD SWAP1 DUP2 ADD PUSH1 0x40 MSTORE DUP1 SWAP3 SWAP2 SWAP1 DUP2 DUP2 MSTORE PUSH1 0x20 ADD DUP3 DUP1 SLOAD PUSH2 0x3BB SWAP1 PUSH2 0x2005 JUMP JUMPDEST DUP1 ISZERO PUSH2 0x408 JUMPI DUP1 PUSH1 0x1F LT PUSH2 0x3DD JUMPI PUSH2 0x100 DUP1 DUP4 SLOAD DIV MUL DUP4 MSTORE SWAP2 PUSH1 0x20 ADD SWAP2 PUSH2 0x408 JUMP JUMPDEST DUP3 ADD SWAP2 SWAP1 PUSH1 0x0 MSTORE PUSH1 0x20 PUSH1 0x0 KECCAK256 SWAP1 JUMPDEST DUP2 SLOAD DUP2 MSTORE SWAP1 PUSH1 0x1 ADD SWAP1 PUSH1 0x20 ADD DUP1 DUP4 GT PUSH2 0x3EB JUMPI DUP3 SWAP1 SUB PUSH1 0x1F AND DUP3 ADD SWAP2 JUMPDEST POP POP POP POP POP DUP2 MSTORE PUSH1 0x20 ADD SWAP1 PUSH1 0x1 ADD SWAP1 PUSH2 0x370 JUMP JUMPDEST POP POP POP POP DUP2 MSTORE PUSH1 0x20 ADD PUSH1 0x4 DUP3 ADD SLOAD DUP2 MSTORE PUSH1 0x20 ADD PUSH1 0x5 DUP3 ADD DUP1 SLOAD PUSH2 0x43E SWAP1 PUSH2 0x2005 JUMP JUMPDEST DUP1 PUSH1 0x1F ADD PUSH1 0x20 DUP1 SWAP2 DIV MUL PUSH1 0x20 ADD PUSH1 0x40 MLOAD SWAP1 DUP2 ADD PUSH1 0x40 MSTORE DUP1 SWAP3 SWAP2 SWAP1 DUP2 DUP2 MSTORE PUSH1 0x20 ADD DUP3 DUP1 SLOAD PUSH2 0x46A SWAP1 PUSH2 0x2005 JUMP JUMPDEST DUP1 ISZERO PUSH2 0x4B7 JUMPI DUP1 PUSH1 0x1F LT PUSH2 0x48C JUMPI PUSH2 0x100 DUP1 DUP4 SLOAD DIV MUL DUP4 MSTORE SWAP2 PUSH1 0x20 ADD SWAP2 PUSH2 0x4B7 JUMP JUMPDEST DUP3 ADD SWAP2 SWAP1 PUSH1 0x0 MSTORE PUSH1 0x20 PUSH1 0x0 KECCAK256 SWAP1 JUMPDEST DUP2 SLOAD DUP2 MSTORE SWAP1 PUSH1 0x1 ADD SWAP1 PUSH1 0x20 ADD DUP1 DUP4 GT PUSH2 0x49A JUMPI DUP3 SWAP1 SUB PUSH1 0x1F AND DUP3 ADD SWAP2 JUMPDEST POP POP POP POP POP DUP2 MSTORE PUSH1 0x20 ADD PUSH1 0x6 DUP3 ADD DUP1 SLOAD PUSH2 0x4D0 SWAP1 PUSH2 0x2005 JUMP JUMPDEST DUP1 PUSH1 0x1F ADD PUSH1 0x20 DUP1 SWAP2 DIV MUL PUSH1 0x20 ADD PUSH1 0x40 MLOAD SWAP1 DUP2 ADD PUSH1 0x40 MSTORE DUP1 SWAP3 SWAP2 SWAP1 DUP2 DUP2 MSTORE PUSH1 0x20 ADD DUP3 DUP1 SLOAD PUSH2 0x4FC SWAP1 PUSH2 0x2005 JUMP JUMPDEST DUP1 ISZERO PUSH2 0x549 JUMPI DUP1 PUSH1 0x1F LT PUSH2 0x51E JUMPI PUSH2 0x100 DUP1 DUP4 SLOAD DIV MUL DUP4 MSTORE SWAP2 PUSH1 0x20 ADD SWAP2 PUSH2 0x549 JUMP JUMPDEST DUP3 ADD SWAP2 SWAP1 PUSH1 0x0 MSTORE PUSH1 0x20 PUSH1 0x0 KECCAK256 SWAP1 JUMPDEST DUP2 SLOAD DUP2 MSTORE SWAP1 PUSH1 0x1 ADD SWAP1 PUSH1 0x20 ADD DUP1 DUP4 GT PUSH2 0x52C JUMPI DUP3 SWAP1 SUB PUSH1 0x1F AND DUP3 ADD SWAP2 JUMPDEST POP POP POP POP POP DUP2 MSTORE PUSH1 0x20 ADD PUSH1 0x7 DUP3 ADD SLOAD DUP2 MSTORE PUSH1 0x20 ADD PUSH1 0x8 DUP3 ADD DUP1 SLOAD PUSH2 0x56C SWAP1 PUSH2 0x2005 JUMP JUMPDEST DUP1 PUSH1 0x1F ADD PUSH1 0x20 DUP1 SWAP2 DIV MUL PUSH1 0x20 ADD PUSH1 0x40 MLOAD SWAP1 DUP2 ADD PUSH1 0x40 MSTORE DUP1 SWAP3 SWAP2 SWAP1 DUP2 DUP2 MSTORE PUSH1 0x20 ADD DUP3 DUP1 SLOAD PUSH2 0x598 SWAP1 PUSH2 0x2005 JUMP JUMPDEST DUP1 ISZERO PUSH2 0x5E5 JUMPI DUP1 PUSH1 0x1F LT PUSH2 0x5BA JUMPI PUSH2 0x100 DUP1 DUP4 SLOAD DIV MUL DUP4 MSTORE SWAP2 PUSH1 0x20 ADD SWAP2 PUSH2 0x5E5 JUMP JUMPDEST DUP3 ADD SWAP2 SWAP1 PUSH1 0x0 MSTORE PUSH1 0x20 PUSH1 0x0 KECCAK256 SWAP1 JUMPDEST DUP2 SLOAD DUP2 MSTORE SWAP1 PUSH1 0x1 ADD SWAP1 PUSH1 0x20 ADD DUP1 DUP4 GT PUSH2 0x5C8 JUMPI DUP3 SWAP1 SUB PUSH1 0x1F AND DUP3 ADD SWAP2 JUMPDEST POP POP POP POP POP DUP2 MSTORE PUSH1 0x20 ADD PUSH1 0x9 DUP3 ADD DUP1 SLOAD PUSH2 0x5FE SWAP1 PUSH2 0x2005 JUMP JUMPDEST DUP1 PUSH1 0x1F ADD PUSH1 0x20 DUP1 SWAP2 DIV MUL PUSH1 0x20 ADD PUSH1 0x40 MLOAD SWAP1 DUP2 ADD PUSH1 0x40 MSTORE DUP1 SWAP3 SWAP2 SWAP1 DUP2 DUP2 MSTORE PUSH1 0x20 ADD DUP3 DUP1 SLOAD PUSH2 0x62A SWAP1 PUSH2 0x2005 JUMP JUMPDEST DUP1 ISZERO PUSH2 0x677 JUMPI DUP1 PUSH1 0x1F LT PUSH2 0x64C JUMPI PUSH2 0x100 DUP1 DUP4 SLOAD DIV MUL DUP4 MSTORE SWAP2 PUSH1 0x20 ADD SWAP2 PUSH2 0x677 JUMP JUMPDEST DUP3 ADD SWAP2 SWAP1 PUSH1 0x0 MSTORE PUSH1 0x20 PUSH1 0x0 KECCAK256 SWAP1 JUMPDEST DUP2 SLOAD DUP2 MSTORE SWAP1 PUSH1 0x1 ADD SWAP1 PUSH1 0x20 ADD DUP1 DUP4 GT PUSH2 0x65A JUMPI DUP3 SWAP1 SUB PUSH1 0x1F AND DUP3 ADD SWAP2 JUMPDEST POP POP POP POP POP DUP2 MSTORE PUSH1 0x20 ADD PUSH1 0xA DUP3 ADD PUSH1 0x0 SWAP1 SLOAD SWAP1 PUSH2 0x100 EXP SWAP1 DIV PUSH20 0xFFFFFFFFFFFFFFFFFFFFFFFFFFFFFFFFFFFFFFFF AND PUSH20 0xFFFFFFFFFFFFFFFFFFFFFFFFFFFFFFFFFFFFFFFF AND PUSH20 0xFFFFFFFFFFFFFFFFFFFFFFFFFFFFFFFFFFFFFFFF AND DUP2 MSTORE PUSH1 0x20 ADD PUSH1 0xA DUP3 ADD PUSH1 0x14 SWAP1 SLOAD SWAP1 PUSH2 0x100 EXP SWAP1 DIV PUSH1 0xFF AND ISZERO ISZERO ISZERO ISZERO DUP2 MSTORE POP POP SWAP1 POP SWAP2 SWAP1 POP JUMP JUMPDEST PUSH1 0x1 DUP2 DUP2 SLOAD DUP2 LT PUSH2 0x708 JUMPI PUSH1 0x0 DUP1 REVERT JUMPDEST SWAP1 PUSH1 0x0 MSTORE PUSH1 0x20 PUSH1 0x0 KECCAK256 SWAP1 PUSH1 0x5 MUL ADD PUSH1 0x0 SWAP2 POP SWAP1 POP DUP1 PUSH1 0x0 ADD DUP1 SLOAD PUSH2 0x72B SWAP1 PUSH2 0x2005 JUMP JUMPDEST DUP1 PUSH1 0x1F ADD PUSH1 0x20 DUP1 SWAP2 DIV MUL PUSH1 0x20 ADD PUSH1 0x40 MLOAD SWAP1 DUP2 ADD PUSH1 0x40 MSTORE DUP1 SWAP3 SWAP2 SWAP1 DUP2 DUP2 MSTORE PUSH1 0x20 ADD DUP3 DUP1 SLOAD PUSH2 0x757 SWAP1 PUSH2 0x2005 JUMP JUMPDEST DUP1 ISZERO PUSH2 0x7A4 JUMPI DUP1 PUSH1 0x1F LT PUSH2 0x779 JUMPI PUSH2 0x100 DUP1 DUP4 SLOAD DIV MUL DUP4 MSTORE SWAP2 PUSH1 0x20 ADD SWAP2 PUSH2 0x7A4 JUMP JUMPDEST DUP3 ADD SWAP2 SWAP1 PUSH1 0x0 MSTORE PUSH1 0x20 PUSH1 0x0 KECCAK256 SWAP1 JUMPDEST DUP2 SLOAD DUP2 MSTORE SWAP1 PUSH1 0x1 ADD SWAP1 PUSH1 0x20 ADD DUP1 DUP4 GT PUSH2 0x787 JUMPI DUP3 SWAP1 SUB PUSH1 0x1F AND DUP3 ADD SWAP2 JUMPDEST POP POP POP POP POP SWAP1 DUP1 PUSH1 0x1 ADD DUP1 SLOAD PUSH2 0x7B9 SWAP1 PUSH2 0x2005 JUMP JUMPDEST DUP1 PUSH1 0x1F ADD PUSH1 0x20 DUP1 SWAP2 DIV MUL PUSH1 0x20 ADD PUSH1 0x40 MLOAD SWAP1 DUP2 ADD PUSH1 0x40 MSTORE DUP1 SWAP3 SWAP2 SWAP1 DUP2 DUP2 MSTORE PUSH1 0x20 ADD DUP3 DUP1 SLOAD PUSH2 0x7E5 SWAP1 PUSH2 0x2005 JUMP JUMPDEST DUP1 ISZERO PUSH2 0x832 JUMPI DUP1 PUSH1 0x1F LT PUSH2 0x807 JUMPI PUSH2 0x100 DUP1 DUP4 SLOAD DIV MUL DUP4 MSTORE SWAP2 PUSH1 0x20 ADD SWAP2 PUSH2 0x832 JUMP JUMPDEST DUP3 ADD SWAP2 SWAP1 PUSH1 0x0 MSTORE PUSH1 0x20 PUSH1 0x0 KECCAK256 SWAP1 JUMPDEST DUP2 SLOAD DUP2 MSTORE SWAP1 PUSH1 0x1 ADD SWAP1 PUSH1 0x20 ADD DUP1 DUP4 GT PUSH2 0x815 JUMPI DUP3 SWAP1 SUB PUSH1 0x1F AND DUP3 ADD SWAP2 JUMPDEST POP POP POP POP POP SWAP1 DUP1 PUSH1 0x2 ADD DUP1 SLOAD PUSH2 0x847 SWAP1 PUSH2 0x2005 JUMP JUMPDEST DUP1 PUSH1 0x1F ADD PUSH1 0x20 DUP1 SWAP2 DIV MUL PUSH1 0x20 ADD PUSH1 0x40 MLOAD SWAP1 DUP2 ADD PUSH1 0x40 MSTORE DUP1 SWAP3 SWAP2 SWAP1 DUP2 DUP2 MSTORE PUSH1 0x20 ADD DUP3 DUP1 SLOAD PUSH2 0x873 SWAP1 PUSH2 0x2005 JUMP JUMPDEST DUP1 ISZERO PUSH2 0x8C0 JUMPI DUP1 PUSH1 0x1F LT PUSH2 0x895 JUMPI PUSH2 0x100 DUP1 DUP4 SLOAD DIV MUL DUP4 MSTORE SWAP2 PUSH1 0x20 ADD SWAP2 PUSH2 0x8C0 JUMP JUMPDEST DUP3 ADD SWAP2 SWAP1 PUSH1 0x0 MSTORE PUSH1 0x20 PUSH1 0x0 KECCAK256 SWAP1 JUMPDEST DUP2 SLOAD DUP2 MSTORE SWAP1 PUSH1 0x1 ADD SWAP1 PUSH1 0x20 ADD DUP1 DUP4 GT PUSH2 0x8A3 JUMPI DUP3 SWAP1 SUB PUSH1 0x1F AND DUP3 ADD SWAP2 JUMPDEST POP POP POP POP POP SWAP1 DUP1 PUSH1 0x3 ADD SLOAD SWAP1 DUP1 PUSH1 0x4 ADD PUSH1 0x0 SWAP1 SLOAD SWAP1 PUSH2 0x100 EXP SWAP1 DIV PUSH20 0xFFFFFFFFFFFFFFFFFFFFFFFFFFFFFFFFFFFFFFFF AND SWAP1 POP DUP6 JUMP JUMPDEST PUSH1 0x0 DUP2 PUSH1 0x40 MLOAD PUSH1 0x20 ADD PUSH2 0x909 SWAP2 SWAP1 PUSH2 0x2073 JUMP JUMPDEST PUSH1 0x40 MLOAD PUSH1 0x20 DUP2 DUP4 SUB SUB DUP2 MSTORE SWAP1 PUSH1 0x40 MSTORE DUP1 MLOAD SWAP1 PUSH1 0x20 ADD KECCAK256 SWAP1 POP PUSH1 0x1 PUSH1 0x40 MLOAD DUP1 PUSH1 0xA0 ADD PUSH1 0x40 MSTORE DUP1 DUP8 DUP2 MSTORE PUSH1 0x20 ADD DUP7 DUP2 MSTORE PUSH1 0x20 ADD DUP6 DUP2 MSTORE PUSH1 0x20 ADD DUP4 DUP2 MSTORE PUSH1 0x20 ADD CALLER PUSH20 0xFFFFFFFFFFFFFFFFFFFFFFFFFFFFFFFFFFFFFFFF AND DUP2 MSTORE POP SWAP1 DUP1 PUSH1 0x1 DUP2 SLOAD ADD DUP1 DUP3 SSTORE DUP1 SWAP2 POP POP PUSH1 0x1 SWAP1 SUB SWAP1 PUSH1 0x0 MSTORE PUSH1 0x20 PUSH1 0x0 KECCAK256 SWAP1 PUSH1 0x5 MUL ADD PUSH1 0x0 SWAP1 SWAP2 SWAP1 SWAP2 SWAP1 SWAP2 POP PUSH1 0x0 DUP3 ADD MLOAD DUP2 PUSH1 0x0 ADD SWAP1 DUP1 MLOAD SWAP1 PUSH1 0x20 ADD SWAP1 PUSH2 0x9A5 SWAP3 SWAP2 SWAP1 PUSH2 0x1392 JUMP JUMPDEST POP PUSH1 0x20 DUP3 ADD MLOAD DUP2 PUSH1 0x1 ADD SWAP1 DUP1 MLOAD SWAP1 PUSH1 0x20 ADD SWAP1 PUSH2 0x9C2 SWAP3 SWAP2 SWAP1 PUSH2 0x1392 JUMP JUMPDEST POP PUSH1 0x40 DUP3 ADD MLOAD DUP2 PUSH1 0x2 ADD SWAP1 DUP1 MLOAD SWAP1 PUSH1 0x20 ADD SWAP1 PUSH2 0x9DF SWAP3 SWAP2 SWAP1 PUSH2 0x1392 JUMP JUMPDEST POP PUSH1 0x60 DUP3 ADD MLOAD DUP2 PUSH1 0x3 ADD SSTORE PUSH1 0x80 DUP3 ADD MLOAD DUP2 PUSH1 0x4 ADD PUSH1 0x0 PUSH2 0x100 EXP DUP2 SLOAD DUP2 PUSH20 0xFFFFFFFFFFFFFFFFFFFFFFFFFFFFFFFFFFFFFFFF MUL NOT AND SWAP1 DUP4 PUSH20 0xFFFFFFFFFFFFFFFFFFFFFFFFFFFFFFFFFFFFFFFF AND MUL OR SWAP1 SSTORE POP POP POP PUSH32 0xD1DF4BAFFD516450D2167D875DA5AEC1E28B2255B23EA338A8E2301A5129AC2B DUP6 DUP6 DUP6 DUP5 CALLER PUSH1 0x40 MLOAD PUSH2 0xA6A SWAP6 SWAP5 SWAP4 SWAP3 SWAP2 SWAP1 PUSH2 0x190A JUMP JUMPDEST PUSH1 0x40 MLOAD DUP1 SWAP2 SUB SWAP1 LOG1 POP POP POP POP POP JUMP JUMPDEST PUSH1 0x2 PUSH1 0x40 MLOAD DUP1 PUSH2 0x180 ADD PUSH1 0x40 MSTORE DUP1 DUP13 DUP2 MSTORE PUSH1 0x20 ADD DUP12 DUP2 MSTORE PUSH1 0x20 ADD DUP11 DUP2 MSTORE PUSH1 0x20 ADD DUP10 DUP2 MSTORE PUSH1 0x20 ADD DUP9 DUP2 MSTORE PUSH1 0x20 ADD DUP8 DUP2 MSTORE PUSH1 0x20 ADD DUP7 DUP2 MSTORE PUSH1 0x20 ADD DUP6 DUP2 MSTORE PUSH1 0x20 ADD DUP5 DUP2 MSTORE PUSH1 0x20 ADD DUP4 DUP2 MSTORE PUSH1 0x20 ADD CALLER PUSH20 0xFFFFFFFFFFFFFFFFFFFFFFFFFFFFFFFFFFFFFFFF AND DUP2 MSTORE PUSH1 0x20 ADD PUSH1 0x0 ISZERO ISZERO DUP2 MSTORE POP SWAP1 DUP1 PUSH1 0x1 DUP2 SLOAD ADD DUP1 DUP3 SSTORE DUP1 SWAP2 POP POP PUSH1 0x1 SWAP1 SUB SWAP1 PUSH1 0x0 MSTORE PUSH1 0x20 PUSH1 0x0 KECCAK256 SWAP1 PUSH1 0xB MUL ADD PUSH1 0x0 SWAP1 SWAP2 SWAP1 SWAP2 SWAP1 SWAP2 POP PUSH1 0x0 DUP3 ADD MLOAD DUP2 PUSH1 0x0 ADD SSTORE PUSH1 0x20 DUP3 ADD MLOAD DUP2 PUSH1 0x1 ADD SWAP1 DUP1 MLOAD SWAP1 PUSH1 0x20 ADD SWAP1 PUSH2 0xB35 SWAP3 SWAP2 SWAP1 PUSH2 0x1392 JUMP JUMPDEST POP PUSH1 0x40 DUP3 ADD MLOAD DUP2 PUSH1 0x2 ADD SWAP1 DUP1 MLOAD SWAP1 PUSH1 0x20 ADD SWAP1 PUSH2 0xB52 SWAP3 SWAP2 SWAP1 PUSH2 0x1392 JUMP JUMPDEST POP PUSH1 0x60 DUP3 ADD MLOAD DUP2 PUSH1 0x3 ADD SWAP1 DUP1 MLOAD SWAP1 PUSH1 0x20 ADD SWAP1 PUSH2 0xB6F SWAP3 SWAP2 SWAP1 PUSH2 0x1418 JUMP JUMPDEST POP PUSH1 0x80 DUP3 ADD MLOAD DUP2 PUSH1 0x4 ADD SSTORE PUSH1 0xA0 DUP3 ADD MLOAD DUP2 PUSH1 0x5 ADD SWAP1 DUP1 MLOAD SWAP1 PUSH1 0x20 ADD SWAP1 PUSH2 0xB96 SWAP3 SWAP2 SWAP1 PUSH2 0x1392 JUMP JUMPDEST POP PUSH1 0xC0 DUP3 ADD MLOAD DUP2 PUSH1 0x6 ADD SWAP1 DUP1 MLOAD SWAP1 PUSH1 0x20 ADD SWAP1 PUSH2 0xBB3 SWAP3 SWAP2 SWAP1 PUSH2 0x1392 JUMP JUMPDEST POP PUSH1 0xE0 DUP3 ADD MLOAD DUP2 PUSH1 0x7 ADD SSTORE PUSH2 0x100 DUP3 ADD MLOAD DUP2 PUSH1 0x8 ADD SWAP1 DUP1 MLOAD SWAP1 PUSH1 0x20 ADD SWAP1 PUSH2 0xBDB SWAP3 SWAP2 SWAP1 PUSH2 0x1392 JUMP JUMPDEST POP PUSH2 0x120 DUP3 ADD MLOAD DUP2 PUSH1 0x9 ADD SWAP1 DUP1 MLOAD SWAP1 PUSH1 0x20 ADD SWAP1 PUSH2 0xBF9 SWAP3 SWAP2 SWAP1 PUSH2 0x1392 JUMP JUMPDEST POP PUSH2 0x140 DUP3 ADD MLOAD DUP2 PUSH1 0xA ADD PUSH1 0x0 PUSH2 0x100 EXP DUP2 SLOAD DUP2 PUSH20 0xFFFFFFFFFFFFFFFFFFFFFFFFFFFFFFFFFFFFFFFF MUL NOT AND SWAP1 DUP4 PUSH20 0xFFFFFFFFFFFFFFFFFFFFFFFFFFFFFFFFFFFFFFFF AND MUL OR SWAP1 SSTORE POP PUSH2 0x160 DUP3 ADD MLOAD DUP2 PUSH1 0xA ADD PUSH1 0x14 PUSH2 0x100 EXP DUP2 SLOAD DUP2 PUSH1 0xFF MUL NOT AND SWAP1 DUP4 ISZERO ISZERO MUL OR SWAP1 SSTORE POP POP POP PUSH32 0x6E3191F85BD442ADD3B514FD809D5C356003EF30047A64AB858AD63BF13E4ED1 DUP11 DUP11 DUP11 DUP11 DUP11 DUP11 DUP11 DUP11 DUP11 DUP11 CALLER PUSH1 0x40 MLOAD PUSH2 0xCA8 SWAP12 SWAP11 SWAP10 SWAP9 SWAP8 SWAP7 SWAP6 SWAP5 SWAP4 SWAP3 SWAP2 SWAP1 PUSH2 0x2110 JUMP JUMPDEST PUSH1 0x40 MLOAD DUP1 SWAP2 SUB SWAP1 LOG1 POP POP POP POP POP POP POP POP POP POP JUMP JUMPDEST PUSH1 0x2 DUP2 DUP2 SLOAD DUP2 LT PUSH2 0xCCC JUMPI PUSH1 0x0 DUP1 REVERT JUMPDEST SWAP1 PUSH1 0x0 MSTORE PUSH1 0x20 PUSH1 0x0 KECCAK256 SWAP1 PUSH1 0xB MUL ADD PUSH1 0x0 SWAP2 POP SWAP1 POP DUP1 PUSH1 0x0 ADD SLOAD SWAP1 DUP1 PUSH1 0x1 ADD DUP1 SLOAD PUSH2 0xCF5 SWAP1 PUSH2 0x2005 JUMP JUMPDEST DUP1 PUSH1 0x1F ADD PUSH1 0x20 DUP1 SWAP2 DIV MUL PUSH1 0x20 ADD PUSH1 0x40 MLOAD SWAP1 DUP2 ADD PUSH1 0x40 MSTORE DUP1 SWAP3 SWAP2 SWAP1 DUP2 DUP2 MSTORE PUSH1 0x20 ADD DUP3 DUP1 SLOAD PUSH2 0xD21 SWAP1 PUSH2 0x2005 JUMP JUMPDEST DUP1 ISZERO PUSH2 0xD6E JUMPI DUP1 PUSH1 0x1F LT PUSH2 0xD43 JUMPI PUSH2 0x100 DUP1 DUP4 SLOAD DIV MUL DUP4 MSTORE SWAP2 PUSH1 0x20 ADD SWAP2 PUSH2 0xD6E JUMP JUMPDEST DUP3 ADD SWAP2 SWAP1 PUSH1 0x0 MSTORE PUSH1 0x20 PUSH1 0x0 KECCAK256 SWAP1 JUMPDEST DUP2 SLOAD DUP2 MSTORE SWAP1 PUSH1 0x1 ADD SWAP1 PUSH1 0x20 ADD DUP1 DUP4 GT PUSH2 0xD51 JUMPI DUP3 SWAP1 SUB PUSH1 0x1F AND DUP3 ADD SWAP2 JUMPDEST POP POP POP POP POP SWAP1 DUP1 PUSH1 0x2 ADD DUP1 SLOAD PUSH2 0xD83 SWAP1 PUSH2 0x2005 JUMP JUMPDEST DUP1 PUSH1 0x1F ADD PUSH1 0x20 DUP1 SWAP2 DIV MUL PUSH1 0x20 ADD PUSH1 0x40 MLOAD SWAP1 DUP2 ADD PUSH1 0x40 MSTORE DUP1 SWAP3 SWAP2 SWAP1 DUP2 DUP2 MSTORE PUSH1 0x20 ADD DUP3 DUP1 SLOAD PUSH2 0xDAF SWAP1 PUSH2 0x2005 JUMP JUMPDEST DUP1 ISZERO PUSH2 0xDFC JUMPI DUP1 PUSH1 0x1F LT PUSH2 0xDD1 JUMPI PUSH2 0x100 DUP1 DUP4 SLOAD DIV MUL DUP4 MSTORE SWAP2 PUSH1 0x20 ADD SWAP2 PUSH2 0xDFC JUMP JUMPDEST DUP3 ADD SWAP2 SWAP1 PUSH1 0x0 MSTORE PUSH1 0x20 PUSH1 0x0 KECCAK256 SWAP1 JUMPDEST DUP2 SLOAD DUP2 MSTORE SWAP1 PUSH1 0x1 ADD SWAP1 PUSH1 0x20 ADD DUP1 DUP4 GT PUSH2 0xDDF JUMPI DUP3 SWAP1 SUB PUSH1 0x1F AND DUP3 ADD SWAP2 JUMPDEST POP POP POP POP POP SWAP1 DUP1 PUSH1 0x4 ADD SLOAD SWAP1 DUP1 PUSH1 0x5 ADD DUP1 SLOAD PUSH2 0xE17 SWAP1 PUSH2 0x2005 JUMP JUMPDEST DUP1 PUSH1 0x1F ADD PUSH1 0x20 DUP1 SWAP2 DIV MUL PUSH1 0x20 ADD PUSH1 0x40 MLOAD SWAP1 DUP2 ADD PUSH1 0x40 MSTORE DUP1 SWAP3 SWAP2 SWAP1 DUP2 DUP2 MSTORE PUSH1 0x20 ADD DUP3 DUP1 SLOAD PUSH2 0xE43 SWAP1 PUSH2 0x2005 JUMP JUMPDEST DUP1 ISZERO PUSH2 0xE90 JUMPI DUP1 PUSH1 0x1F LT PUSH2 0xE65 JUMPI PUSH2 0x100 DUP1 DUP4 SLOAD DIV MUL DUP4 MSTORE SWAP2 PUSH1 0x20 ADD SWAP2 PUSH2 0xE90 JUMP JUMPDEST DUP3 ADD SWAP2 SWAP1 PUSH1 0x0 MSTORE PUSH1 0x20 PUSH1 0x0 KECCAK256 SWAP1 JUMPDEST DUP2 SLOAD DUP2 MSTORE SWAP1 PUSH1 0x1 ADD SWAP1 PUSH1 0x20 ADD DUP1 DUP4 GT PUSH2 0xE73 JUMPI DUP3 SWAP1 SUB PUSH1 0x1F AND DUP3 ADD SWAP2 JUMPDEST POP POP POP POP POP SWAP1 DUP1 PUSH1 0x6 ADD DUP1 SLOAD PUSH2 0xEA5 SWAP1 PUSH2 0x2005 JUMP JUMPDEST DUP1 PUSH1 0x1F ADD PUSH1 0x20 DUP1 SWAP2 DIV MUL PUSH1 0x20 ADD PUSH1 0x40 MLOAD SWAP1 DUP2 ADD PUSH1 0x40 MSTORE DUP1 SWAP3 SWAP2 SWAP1 DUP2 DUP2 MSTORE PUSH1 0x20 ADD DUP3 DUP1 SLOAD PUSH2 0xED1 SWAP1 PUSH2 0x2005 JUMP JUMPDEST DUP1 ISZERO PUSH2 0xF1E JUMPI DUP1 PUSH1 0x1F LT PUSH2 0xEF3 JUMPI PUSH2 0x100 DUP1 DUP4 SLOAD DIV MUL DUP4 MSTORE SWAP2 PUSH1 0x20 ADD SWAP2 PUSH2 0xF1E JUMP JUMPDEST DUP3 ADD SWAP2 SWAP1 PUSH1 0x0 MSTORE PUSH1 0x20 PUSH1 0x0 KECCAK256 SWAP1 JUMPDEST DUP2 SLOAD DUP2 MSTORE SWAP1 PUSH1 0x1 ADD SWAP1 PUSH1 0x20 ADD DUP1 DUP4 GT PUSH2 0xF01 JUMPI DUP3 SWAP1 SUB PUSH1 0x1F AND DUP3 ADD SWAP2 JUMPDEST POP POP POP POP POP SWAP1 DUP1 PUSH1 0x7 ADD SLOAD SWAP1 DUP1 PUSH1 0x8 ADD DUP1 SLOAD PUSH2 0xF39 SWAP1 PUSH2 0x2005 JUMP JUMPDEST DUP1 PUSH1 0x1F ADD PUSH1 0x20 DUP1 SWAP2 DIV MUL PUSH1 0x20 ADD PUSH1 0x40 MLOAD SWAP1 DUP2 ADD PUSH1 0x40 MSTORE DUP1 SWAP3 SWAP2 SWAP1 DUP2 DUP2 MSTORE PUSH1 0x20 ADD DUP3 DUP1 SLOAD PUSH2 0xF65 SWAP1 PUSH2 0x2005 JUMP JUMPDEST DUP1 ISZERO PUSH2 0xFB2 JUMPI DUP1 PUSH1 0x1F LT PUSH2 0xF87 JUMPI PUSH2 0x100 DUP1 DUP4 SLOAD DIV MUL DUP4 MSTORE SWAP2 PUSH1 0x20 ADD SWAP2 PUSH2 0xFB2 JUMP JUMPDEST DUP3 ADD SWAP2 SWAP1 PUSH1 0x0 MSTORE PUSH1 0x20 PUSH1 0x0 KECCAK256 SWAP1 JUMPDEST DUP2 SLOAD DUP2 MSTORE SWAP1 PUSH1 0x1 ADD SWAP1 PUSH1 0x20 ADD DUP1 DUP4 GT PUSH2 0xF95 JUMPI DUP3 SWAP1 SUB PUSH1 0x1F AND DUP3 ADD SWAP2 JUMPDEST POP POP POP POP POP SWAP1 DUP1 PUSH1 0x9 ADD DUP1 SLOAD PUSH2 0xFC7 SWAP1 PUSH2 0x2005 JUMP JUMPDEST DUP1 PUSH1 0x1F ADD PUSH1 0x20 DUP1 SWAP2 DIV MUL PUSH1 0x20 ADD PUSH1 0x40 MLOAD SWAP1 DUP2 ADD PUSH1 0x40 MSTORE DUP1 SWAP3 SWAP2 SWAP1 DUP2 DUP2 MSTORE PUSH1 0x20 ADD DUP3 DUP1 SLOAD PUSH2 0xFF3 SWAP1 PUSH2 0x2005 JUMP JUMPDEST DUP1 ISZERO PUSH2 0x1040 JUMPI DUP1 PUSH1 0x1F LT PUSH2 0x1015 JUMPI PUSH2 0x100 DUP1 DUP4 SLOAD DIV MUL DUP4 MSTORE SWAP2 PUSH1 0x20 ADD SWAP2 PUSH2 0x1040 JUMP JUMPDEST DUP3 ADD SWAP2 SWAP1 PUSH1 0x0 MSTORE PUSH1 0x20 PUSH1 0x0 KECCAK256 SWAP1 JUMPDEST DUP2 SLOAD DUP2 MSTORE SWAP1 PUSH1 0x1 ADD SWAP1 PUSH1 0x20 ADD DUP1 DUP4 GT PUSH2 0x1023 JUMPI DUP3 SWAP1 SUB PUSH1 0x1F AND DUP3 ADD SWAP2 JUMPDEST POP POP POP POP POP SWAP1 DUP1 PUSH1 0xA ADD PUSH1 0x0 SWAP1 SLOAD SWAP1 PUSH2 0x100 EXP SWAP1 DIV PUSH20 0xFFFFFFFFFFFFFFFFFFFFFFFFFFFFFFFFFFFFFFFF AND SWAP1 DUP1 PUSH1 0xA ADD PUSH1 0x14 SWAP1 SLOAD SWAP1 PUSH2 0x100 EXP SWAP1 DIV PUSH1 0xFF AND SWAP1 POP DUP12 JUMP JUMPDEST PUSH1 0x3 DUP2 DUP2 SLOAD DUP2 LT PUSH2 0x1093 JUMPI PUSH1 0x0 DUP1 REVERT JUMPDEST SWAP1 PUSH1 0x0 MSTORE PUSH1 0x20 PUSH1 0x0 KECCAK256 SWAP1 PUSH1 0x3 MUL ADD PUSH1 0x0 SWAP2 POP SWAP1 POP DUP1 PUSH1 0x0 ADD SLOAD SWAP1 DUP1 PUSH1 0x1 ADD SLOAD SWAP1 DUP1 PUSH1 0x2 ADD SLOAD SWAP1 POP DUP4 JUMP JUMPDEST PUSH1 0x1 ISZERO ISZERO PUSH1 0x2 DUP6 DUP2 SLOAD DUP2 LT PUSH2 0x10D5 JUMPI PUSH2 0x10D4 PUSH2 0x1FA7 JUMP JUMPDEST JUMPDEST SWAP1 PUSH1 0x0 MSTORE PUSH1 0x20 PUSH1 0x0 KECCAK256 SWAP1 PUSH1 0xB MUL ADD PUSH1 0xA ADD PUSH1 0x14 SWAP1 SLOAD SWAP1 PUSH2 0x100 EXP SWAP1 DIV PUSH1 0xFF AND ISZERO ISZERO EQ ISZERO PUSH2 0x112E JUMPI PUSH1 0x40 MLOAD PUSH32 0x21BCCB3400000000000000000000000000000000000000000000000000000000 DUP2 MSTORE PUSH1 0x4 ADD PUSH1 0x40 MLOAD DUP1 SWAP2 SUB SWAP1 REVERT JUMPDEST DUP3 DUP3 PUSH2 0x113A SWAP2 SWAP1 PUSH2 0x221B JUMP JUMPDEST PUSH1 0x2 DUP6 DUP2 SLOAD DUP2 LT PUSH2 0x114E JUMPI PUSH2 0x114D PUSH2 0x1FA7 JUMP JUMPDEST JUMPDEST SWAP1 PUSH1 0x0 MSTORE PUSH1 0x20 PUSH1 0x0 KECCAK256 SWAP1 PUSH1 0xB MUL ADD PUSH1 0x4 ADD SLOAD PUSH2 0x116A SWAP2 SWAP1 PUSH2 0x224F JUMP JUMPDEST CALLVALUE EQ ISZERO PUSH2 0x12E1 JUMPI PUSH1 0x2 DUP5 DUP2 SLOAD DUP2 LT PUSH2 0x1185 JUMPI PUSH2 0x1184 PUSH2 0x1FA7 JUMP JUMPDEST JUMPDEST SWAP1 PUSH1 0x0 MSTORE PUSH1 0x20 PUSH1 0x0 KECCAK256 SWAP1 PUSH1 0xB MUL ADD PUSH1 0xA ADD PUSH1 0x0 SWAP1 SLOAD SWAP1 PUSH2 0x100 EXP SWAP1 DIV PUSH20 0xFFFFFFFFFFFFFFFFFFFFFFFFFFFFFFFFFFFFFFFF AND PUSH20 0xFFFFFFFFFFFFFFFFFFFFFFFFFFFFFFFFFFFFFFFF AND PUSH2 0x8FC CALLVALUE SWAP1 DUP2 ISZERO MUL SWAP1 PUSH1 0x40 MLOAD PUSH1 0x0 PUSH1 0x40 MLOAD DUP1 DUP4 SUB DUP2 DUP6 DUP9 DUP9 CALL SWAP4 POP POP POP POP ISZERO DUP1 ISZERO PUSH2 0x11FC JUMPI RETURNDATASIZE PUSH1 0x0 DUP1 RETURNDATACOPY RETURNDATASIZE PUSH1 0x0 REVERT JUMPDEST POP PUSH1 0x1 PUSH1 0x2 DUP6 DUP2 SLOAD DUP2 LT PUSH2 0x1213 JUMPI PUSH2 0x1212 PUSH2 0x1FA7 JUMP JUMPDEST JUMPDEST SWAP1 PUSH1 0x0 MSTORE PUSH1 0x20 PUSH1 0x0 KECCAK256 SWAP1 PUSH1 0xB MUL ADD PUSH1 0xA ADD PUSH1 0x14 PUSH2 0x100 EXP DUP2 SLOAD DUP2 PUSH1 0xFF MUL NOT AND SWAP1 DUP4 ISZERO ISZERO MUL OR SWAP1 SSTORE POP PUSH1 0x3 PUSH1 0x40 MLOAD DUP1 PUSH1 0x60 ADD PUSH1 0x40 MSTORE DUP1 DUP4 DUP2 MSTORE PUSH1 0x20 ADD DUP6 DUP2 MSTORE PUSH1 0x20 ADD DUP5 DUP2 MSTORE POP SWAP1 DUP1 PUSH1 0x1 DUP2 SLOAD ADD DUP1 DUP3 SSTORE DUP1 SWAP2 POP POP PUSH1 0x1 SWAP1 SUB SWAP1 PUSH1 0x0 MSTORE PUSH1 0x20 PUSH1 0x0 KECCAK256 SWAP1 PUSH1 0x3 MUL ADD PUSH1 0x0 SWAP1 SWAP2 SWAP1 SWAP2 SWAP1 SWAP2 POP PUSH1 0x0 DUP3 ADD MLOAD DUP2 PUSH1 0x0 ADD SSTORE PUSH1 0x20 DUP3 ADD MLOAD DUP2 PUSH1 0x1 ADD SSTORE PUSH1 0x40 DUP3 ADD MLOAD DUP2 PUSH1 0x2 ADD SSTORE POP POP PUSH32 0x23ED8BB044AFF8CC7238E3F87CEF1DB22498333221DD02CA2336C8EF27527F8A DUP2 DUP5 DUP5 PUSH1 0x40 MLOAD PUSH2 0x12D4 SWAP4 SWAP3 SWAP2 SWAP1 PUSH2 0x1F09 JUMP JUMPDEST PUSH1 0x40 MLOAD DUP1 SWAP2 SUB SWAP1 LOG1 PUSH2 0x1313 JUMP JUMPDEST PUSH1 0x40 MLOAD PUSH32 0xC73D421D00000000000000000000000000000000000000000000000000000000 DUP2 MSTORE PUSH1 0x4 ADD PUSH1 0x40 MLOAD DUP1 SWAP2 SUB SWAP1 REVERT JUMPDEST POP POP POP POP JUMP JUMPDEST PUSH1 0x40 MLOAD DUP1 PUSH2 0x180 ADD PUSH1 0x40 MSTORE DUP1 PUSH1 0x0 DUP2 MSTORE PUSH1 0x20 ADD PUSH1 0x60 DUP2 MSTORE PUSH1 0x20 ADD PUSH1 0x60 DUP2 MSTORE PUSH1 0x20 ADD PUSH1 0x60 DUP2 MSTORE PUSH1 0x20 ADD PUSH1 0x0 DUP2 MSTORE PUSH1 0x20 ADD PUSH1 0x60 DUP2 MSTORE PUSH1 0x20 ADD PUSH1 0x60 DUP2 MSTORE PUSH1 0x20 ADD PUSH1 0x0 DUP2 MSTORE PUSH1 0x20 ADD PUSH1 0x60 DUP2 MSTORE PUSH1 0x20 ADD PUSH1 0x60 DUP2 MSTORE PUSH1 0x20 ADD PUSH1 0x0 PUSH20 0xFFFFFFFFFFFFFFFFFFFFFFFFFFFFFFFFFFFFFFFF AND DUP2 MSTORE PUSH1 0x20 ADD PUSH1 0x0 ISZERO ISZERO DUP2 MSTORE POP SWAP1 JUMP JUMPDEST DUP3 DUP1 SLOAD PUSH2 0x139E SWAP1 PUSH2 0x2005 JUMP JUMPDEST SWAP1 PUSH1 0x0 MSTORE PUSH1 0x20 PUSH1 0x0 KECCAK256 SWAP1 PUSH1 0x1F ADD PUSH1 0x20 SWAP1 DIV DUP2 ADD SWAP3 DUP3 PUSH2 0x13C0 JUMPI PUSH1 0x0 DUP6 SSTORE PUSH2 0x1407 JUMP JUMPDEST DUP3 PUSH1 0x1F LT PUSH2 0x13D9 JUMPI DUP1 MLOAD PUSH1 0xFF NOT AND DUP4 DUP1 ADD OR DUP6 SSTORE PUSH2 0x1407 JUMP JUMPDEST DUP3 DUP1 ADD PUSH1 0x1 ADD DUP6 SSTORE DUP3 ISZERO PUSH2 0x1407 JUMPI SWAP2 DUP3 ADD JUMPDEST DUP3 DUP2 GT ISZERO PUSH2 0x1406 JUMPI DUP3 MLOAD DUP3 SSTORE SWAP2 PUSH1 0x20 ADD SWAP2 SWAP1 PUSH1 0x1 ADD SWAP1 PUSH2 0x13EB JUMP JUMPDEST JUMPDEST POP SWAP1 POP PUSH2 0x1414 SWAP2 SWAP1 PUSH2 0x1478 JUMP JUMPDEST POP SWAP1 JUMP JUMPDEST DUP3 DUP1 SLOAD DUP3 DUP3 SSTORE SWAP1 PUSH1 0x0 MSTORE PUSH1 0x20 PUSH1 0x0 KECCAK256 SWAP1 DUP2 ADD SWAP3 DUP3 ISZERO PUSH2 0x1467 JUMPI SWAP2 PUSH1 0x20 MUL DUP3 ADD JUMPDEST DUP3 DUP2 GT ISZERO PUSH2 0x1466 JUMPI DUP3 MLOAD DUP3 SWAP1 DUP1 MLOAD SWAP1 PUSH1 0x20 ADD SWAP1 PUSH2 0x1456 SWAP3 SWAP2 SWAP1 PUSH2 0x1392 JUMP JUMPDEST POP SWAP2 PUSH1 0x20 ADD SWAP2 SWAP1 PUSH1 0x1 ADD SWAP1 PUSH2 0x1438 JUMP JUMPDEST JUMPDEST POP SWAP1 POP PUSH2 0x1474 SWAP2 SWAP1 PUSH2 0x1495 JUMP JUMPDEST POP SWAP1 JUMP JUMPDEST JUMPDEST DUP1 DUP3 GT ISZERO PUSH2 0x1491 JUMPI PUSH1 0x0 DUP2 PUSH1 0x0 SWAP1 SSTORE POP PUSH1 0x1 ADD PUSH2 0x1479 JUMP JUMPDEST POP SWAP1 JUMP JUMPDEST JUMPDEST DUP1 DUP3 GT ISZERO PUSH2 0x14B5 JUMPI PUSH1 0x0 DUP2 DUP2 PUSH2 0x14AC SWAP2 SWAP1 PUSH2 0x14B9 JUMP JUMPDEST POP PUSH1 0x1 ADD PUSH2 0x1496 JUMP JUMPDEST POP SWAP1 JUMP JUMPDEST POP DUP1 SLOAD PUSH2 0x14C5 SWAP1 PUSH2 0x2005 JUMP JUMPDEST PUSH1 0x0 DUP3 SSTORE DUP1 PUSH1 0x1F LT PUSH2 0x14D7 JUMPI POP PUSH2 0x14F6 JUMP JUMPDEST PUSH1 0x1F ADD PUSH1 0x20 SWAP1 DIV SWAP1 PUSH1 0x0 MSTORE PUSH1 0x20 PUSH1 0x0 KECCAK256 SWAP1 DUP2 ADD SWAP1 PUSH2 0x14F5 SWAP2 SWAP1 PUSH2 0x1478 JUMP JUMPDEST JUMPDEST POP JUMP JUMPDEST PUSH1 0x0 PUSH1 0x40 MLOAD SWAP1 POP SWAP1 JUMP JUMPDEST PUSH1 0x0 DUP1 REVERT JUMPDEST PUSH1 0x0 DUP1 REVERT JUMPDEST PUSH1 0x0 DUP2 SWAP1 POP SWAP2 SWAP1 POP JUMP JUMPDEST PUSH2 0x1520 DUP2 PUSH2 0x150D JUMP JUMPDEST DUP2 EQ PUSH2 0x152B JUMPI PUSH1 0x0 DUP1 REVERT JUMPDEST POP JUMP JUMPDEST PUSH1 0x0 DUP2 CALLDATALOAD SWAP1 POP PUSH2 0x153D DUP2 PUSH2 0x1517 JUMP JUMPDEST SWAP3 SWAP2 POP POP JUMP JUMPDEST PUSH1 0x0 PUSH1 0x20 DUP3 DUP5 SUB SLT ISZERO PUSH2 0x1559 JUMPI PUSH2 0x1558 PUSH2 0x1503 JUMP JUMPDEST JUMPDEST PUSH1 0x0 PUSH2 0x1567 DUP5 DUP3 DUP6 ADD PUSH2 0x152E JUMP JUMPDEST SWAP2 POP POP SWAP3 SWAP2 POP POP JUMP JUMPDEST PUSH2 0x1579 DUP2 PUSH2 0x150D JUMP JUMPDEST DUP3 MSTORE POP POP JUMP JUMPDEST PUSH1 0x0 DUP2 MLOAD SWAP1 POP SWAP2 SWAP1 POP JUMP JUMPDEST PUSH1 0x0 DUP3 DUP3 MSTORE PUSH1 0x20 DUP3 ADD SWAP1 POP SWAP3 SWAP2 POP POP JUMP JUMPDEST PUSH1 0x0 JUMPDEST DUP4 DUP2 LT ISZERO PUSH2 0x15B9 JUMPI DUP1 DUP3 ADD MLOAD DUP2 DUP5 ADD MSTORE PUSH1 0x20 DUP2 ADD SWAP1 POP PUSH2 0x159E JUMP JUMPDEST DUP4 DUP2 GT ISZERO PUSH2 0x15C8 JUMPI PUSH1 0x0 DUP5 DUP5 ADD MSTORE JUMPDEST POP POP POP POP JUMP JUMPDEST PUSH1 0x0 PUSH1 0x1F NOT PUSH1 0x1F DUP4 ADD AND SWAP1 POP SWAP2 SWAP1 POP JUMP JUMPDEST PUSH1 0x0 PUSH2 0x15EA DUP3 PUSH2 0x157F JUMP JUMPDEST PUSH2 0x15F4 DUP2 DUP6 PUSH2 0x158A JUMP JUMPDEST SWAP4 POP PUSH2 0x1604 DUP2 DUP6 PUSH1 0x20 DUP7 ADD PUSH2 0x159B JUMP JUMPDEST PUSH2 0x160D DUP2 PUSH2 0x15CE JUMP JUMPDEST DUP5 ADD SWAP2 POP POP SWAP3 SWAP2 POP POP JUMP JUMPDEST PUSH1 0x0 DUP2 MLOAD SWAP1 POP SWAP2 SWAP1 POP JUMP JUMPDEST PUSH1 0x0 DUP3 DUP3 MSTORE PUSH1 0x20 DUP3 ADD SWAP1 POP SWAP3 SWAP2 POP POP JUMP JUMPDEST PUSH1 0x0 DUP2 SWAP1 POP PUSH1 0x20 DUP3 ADD SWAP1 POP SWAP2 SWAP1 POP JUMP JUMPDEST PUSH1 0x0 PUSH2 0x1650 DUP4 DUP4 PUSH2 0x15DF JUMP JUMPDEST SWAP1 POP SWAP3 SWAP2 POP POP JUMP JUMPDEST PUSH1 0x0 PUSH1 0x20 DUP3 ADD SWAP1 POP SWAP2 SWAP1 POP JUMP JUMPDEST PUSH1 0x0 PUSH2 0x1670 DUP3 PUSH2 0x1618 JUMP JUMPDEST PUSH2 0x167A DUP2 DUP6 PUSH2 0x1623 JUMP JUMPDEST SWAP4 POP DUP4 PUSH1 0x20 DUP3 MUL DUP6 ADD PUSH2 0x168C DUP6 PUSH2 0x1634 JUMP JUMPDEST DUP1 PUSH1 0x0 JUMPDEST DUP6 DUP2 LT ISZERO PUSH2 0x16C8 JUMPI DUP5 DUP5 SUB DUP10 MSTORE DUP2 MLOAD PUSH2 0x16A9 DUP6 DUP3 PUSH2 0x1644 JUMP JUMPDEST SWAP5 POP PUSH2 0x16B4 DUP4 PUSH2 0x1658 JUMP JUMPDEST SWAP3 POP PUSH1 0x20 DUP11 ADD SWAP10 POP POP PUSH1 0x1 DUP2 ADD SWAP1 POP PUSH2 0x1690 JUMP JUMPDEST POP DUP3 SWAP8 POP DUP8 SWAP6 POP POP POP POP POP POP SWAP3 SWAP2 POP POP JUMP JUMPDEST PUSH1 0x0 PUSH20 0xFFFFFFFFFFFFFFFFFFFFFFFFFFFFFFFFFFFFFFFF DUP3 AND SWAP1 POP SWAP2 SWAP1 POP JUMP JUMPDEST PUSH1 0x0 PUSH2 0x1705 DUP3 PUSH2 0x16DA JUMP JUMPDEST SWAP1 POP SWAP2 SWAP1 POP JUMP JUMPDEST PUSH2 0x1715 DUP2 PUSH2 0x16FA JUMP JUMPDEST DUP3 MSTORE POP POP JUMP JUMPDEST PUSH1 0x0 DUP2 ISZERO ISZERO SWAP1 POP SWAP2 SWAP1 POP JUMP JUMPDEST PUSH2 0x1730 DUP2 PUSH2 0x171B JUMP JUMPDEST DUP3 MSTORE POP POP JUMP JUMPDEST PUSH1 0x0 PUSH2 0x180 DUP4 ADD PUSH1 0x0 DUP4 ADD MLOAD PUSH2 0x174F PUSH1 0x0 DUP7 ADD DUP3 PUSH2 0x1570 JUMP JUMPDEST POP PUSH1 0x20 DUP4 ADD MLOAD DUP5 DUP3 SUB PUSH1 0x20 DUP7 ADD MSTORE PUSH2 0x1767 DUP3 DUP3 PUSH2 0x15DF JUMP JUMPDEST SWAP2 POP POP PUSH1 0x40 DUP4 ADD MLOAD DUP5 DUP3 SUB PUSH1 0x40 DUP7 ADD MSTORE PUSH2 0x1781 DUP3 DUP3 PUSH2 0x15DF JUMP JUMPDEST SWAP2 POP POP PUSH1 0x60 DUP4 ADD MLOAD DUP5 DUP3 SUB PUSH1 0x60 DUP7 ADD MSTORE PUSH2 0x179B DUP3 DUP3 PUSH2 0x1665 JUMP JUMPDEST SWAP2 POP POP PUSH1 0x80 DUP4 ADD MLOAD PUSH2 0x17B0 PUSH1 0x80 DUP7 ADD DUP3 PUSH2 0x1570 JUMP JUMPDEST POP PUSH1 0xA0 DUP4 ADD MLOAD DUP5 DUP3 SUB PUSH1 0xA0 DUP7 ADD MSTORE PUSH2 0x17C8 DUP3 DUP3 PUSH2 0x15DF JUMP JUMPDEST SWAP2 POP POP PUSH1 0xC0 DUP4 ADD MLOAD DUP5 DUP3 SUB PUSH1 0xC0 DUP7 ADD MSTORE PUSH2 0x17E2 DUP3 DUP3 PUSH2 0x15DF JUMP JUMPDEST SWAP2 POP POP PUSH1 0xE0 DUP4 ADD MLOAD PUSH2 0x17F7 PUSH1 0xE0 DUP7 ADD DUP3 PUSH2 0x1570 JUMP JUMPDEST POP PUSH2 0x100 DUP4 ADD MLOAD DUP5 DUP3 SUB PUSH2 0x100 DUP7 ADD MSTORE PUSH2 0x1811 DUP3 DUP3 PUSH2 0x15DF JUMP JUMPDEST SWAP2 POP POP PUSH2 0x120 DUP4 ADD MLOAD DUP5 DUP3 SUB PUSH2 0x120 DUP7 ADD MSTORE PUSH2 0x182D DUP3 DUP3 PUSH2 0x15DF JUMP JUMPDEST SWAP2 POP POP PUSH2 0x140 DUP4 ADD MLOAD PUSH2 0x1844 PUSH2 0x140 DUP7 ADD DUP3 PUSH2 0x170C JUMP JUMPDEST POP PUSH2 0x160 DUP4 ADD MLOAD PUSH2 0x1859 PUSH2 0x160 DUP7 ADD DUP3 PUSH2 0x1727 JUMP JUMPDEST POP DUP1 SWAP2 POP POP SWAP3 SWAP2 POP POP JUMP JUMPDEST PUSH1 0x0 PUSH1 0x20 DUP3 ADD SWAP1 POP DUP2 DUP2 SUB PUSH1 0x0 DUP4 ADD MSTORE PUSH2 0x187E DUP2 DUP5 PUSH2 0x1736 JUMP JUMPDEST SWAP1 POP SWAP3 SWAP2 POP POP JUMP JUMPDEST PUSH1 0x0 DUP3 DUP3 MSTORE PUSH1 0x20 DUP3 ADD SWAP1 POP SWAP3 SWAP2 POP POP JUMP JUMPDEST PUSH1 0x0 PUSH2 0x18A2 DUP3 PUSH2 0x157F JUMP JUMPDEST PUSH2 0x18AC DUP2 DUP6 PUSH2 0x1886 JUMP JUMPDEST SWAP4 POP PUSH2 0x18BC DUP2 DUP6 PUSH1 0x20 DUP7 ADD PUSH2 0x159B JUMP JUMPDEST PUSH2 0x18C5 DUP2 PUSH2 0x15CE JUMP JUMPDEST DUP5 ADD SWAP2 POP POP SWAP3 SWAP2 POP POP JUMP JUMPDEST PUSH1 0x0 DUP2 SWAP1 POP SWAP2 SWAP1 POP JUMP JUMPDEST PUSH2 0x18E3 DUP2 PUSH2 0x18D0 JUMP JUMPDEST DUP3 MSTORE POP POP JUMP JUMPDEST PUSH1 0x0 PUSH2 0x18F4 DUP3 PUSH2 0x16DA JUMP JUMPDEST SWAP1 POP SWAP2 SWAP1 POP JUMP JUMPDEST PUSH2 0x1904 DUP2 PUSH2 0x18E9 JUMP JUMPDEST DUP3 MSTORE POP POP JUMP JUMPDEST PUSH1 0x0 PUSH1 0xA0 DUP3 ADD SWAP1 POP DUP2 DUP2 SUB PUSH1 0x0 DUP4 ADD MSTORE PUSH2 0x1924 DUP2 DUP9 PUSH2 0x1897 JUMP JUMPDEST SWAP1 POP DUP2 DUP2 SUB PUSH1 0x20 DUP4 ADD MSTORE PUSH2 0x1938 DUP2 DUP8 PUSH2 0x1897 JUMP JUMPDEST SWAP1 POP DUP2 DUP2 SUB PUSH1 0x40 DUP4 ADD MSTORE PUSH2 0x194C DUP2 DUP7 PUSH2 0x1897 JUMP JUMPDEST SWAP1 POP PUSH2 0x195B PUSH1 0x60 DUP4 ADD DUP6 PUSH2 0x18DA JUMP JUMPDEST PUSH2 0x1968 PUSH1 0x80 DUP4 ADD DUP5 PUSH2 0x18FB JUMP JUMPDEST SWAP7 SWAP6 POP POP POP POP POP POP JUMP JUMPDEST PUSH1 0x0 DUP1 REVERT JUMPDEST PUSH1 0x0 DUP1 REVERT JUMPDEST PUSH32 0x4E487B7100000000000000000000000000000000000000000000000000000000 PUSH1 0x0 MSTORE PUSH1 0x41 PUSH1 0x4 MSTORE PUSH1 0x24 PUSH1 0x0 REVERT JUMPDEST PUSH2 0x19B4 DUP3 PUSH2 0x15CE JUMP JUMPDEST DUP2 ADD DUP2 DUP2 LT PUSH8 0xFFFFFFFFFFFFFFFF DUP3 GT OR ISZERO PUSH2 0x19D3 JUMPI PUSH2 0x19D2 PUSH2 0x197C JUMP JUMPDEST JUMPDEST DUP1 PUSH1 0x40 MSTORE POP POP POP JUMP JUMPDEST PUSH1 0x0 PUSH2 0x19E6 PUSH2 0x14F9 JUMP JUMPDEST SWAP1 POP PUSH2 0x19F2 DUP3 DUP3 PUSH2 0x19AB JUMP JUMPDEST SWAP2 SWAP1 POP JUMP JUMPDEST PUSH1 0x0 PUSH8 0xFFFFFFFFFFFFFFFF DUP3 GT ISZERO PUSH2 0x1A12 JUMPI PUSH2 0x1A11 PUSH2 0x197C JUMP JUMPDEST JUMPDEST PUSH2 0x1A1B DUP3 PUSH2 0x15CE JUMP JUMPDEST SWAP1 POP PUSH1 0x20 DUP2 ADD SWAP1 POP SWAP2 SWAP1 POP JUMP JUMPDEST DUP3 DUP2 DUP4 CALLDATACOPY PUSH1 0x0 DUP4 DUP4 ADD MSTORE POP POP POP JUMP JUMPDEST PUSH1 0x0 PUSH2 0x1A4A PUSH2 0x1A45 DUP5 PUSH2 0x19F7 JUMP JUMPDEST PUSH2 0x19DC JUMP JUMPDEST SWAP1 POP DUP3 DUP2 MSTORE PUSH1 0x20 DUP2 ADD DUP5 DUP5 DUP5 ADD GT ISZERO PUSH2 0x1A66 JUMPI PUSH2 0x1A65 PUSH2 0x1977 JUMP JUMPDEST JUMPDEST PUSH2 0x1A71 DUP5 DUP3 DUP6 PUSH2 0x1A28 JUMP JUMPDEST POP SWAP4 SWAP3 POP POP POP JUMP JUMPDEST PUSH1 0x0 DUP3 PUSH1 0x1F DUP4 ADD SLT PUSH2 0x1A8E JUMPI PUSH2 0x1A8D PUSH2 0x1972 JUMP JUMPDEST JUMPDEST DUP2 CALLDATALOAD PUSH2 0x1A9E DUP5 DUP3 PUSH1 0x20 DUP7 ADD PUSH2 0x1A37 JUMP JUMPDEST SWAP2 POP POP SWAP3 SWAP2 POP POP JUMP JUMPDEST PUSH1 0x0 DUP1 PUSH1 0x0 DUP1 PUSH1 0x80 DUP6 DUP8 SUB SLT ISZERO PUSH2 0x1AC1 JUMPI PUSH2 0x1AC0 PUSH2 0x1503 JUMP JUMPDEST JUMPDEST PUSH1 0x0 DUP6 ADD CALLDATALOAD PUSH8 0xFFFFFFFFFFFFFFFF DUP2 GT ISZERO PUSH2 0x1ADF JUMPI PUSH2 0x1ADE PUSH2 0x1508 JUMP JUMPDEST JUMPDEST PUSH2 0x1AEB DUP8 DUP3 DUP9 ADD PUSH2 0x1A79 JUMP JUMPDEST SWAP5 POP POP PUSH1 0x20 DUP6 ADD CALLDATALOAD PUSH8 0xFFFFFFFFFFFFFFFF DUP2 GT ISZERO PUSH2 0x1B0C JUMPI PUSH2 0x1B0B PUSH2 0x1508 JUMP JUMPDEST JUMPDEST PUSH2 0x1B18 DUP8 DUP3 DUP9 ADD PUSH2 0x1A79 JUMP JUMPDEST SWAP4 POP POP PUSH1 0x40 DUP6 ADD CALLDATALOAD PUSH8 0xFFFFFFFFFFFFFFFF DUP2 GT ISZERO PUSH2 0x1B39 JUMPI PUSH2 0x1B38 PUSH2 0x1508 JUMP JUMPDEST JUMPDEST PUSH2 0x1B45 DUP8 DUP3 DUP9 ADD PUSH2 0x1A79 JUMP JUMPDEST SWAP3 POP POP PUSH1 0x60 DUP6 ADD CALLDATALOAD PUSH8 0xFFFFFFFFFFFFFFFF DUP2 GT ISZERO PUSH2 0x1B66 JUMPI PUSH2 0x1B65 PUSH2 0x1508 JUMP JUMPDEST JUMPDEST PUSH2 0x1B72 DUP8 DUP3 DUP9 ADD PUSH2 0x1A79 JUMP JUMPDEST SWAP2 POP POP SWAP3 SWAP6 SWAP2 SWAP5 POP SWAP3 POP JUMP JUMPDEST PUSH1 0x0 PUSH8 0xFFFFFFFFFFFFFFFF DUP3 GT ISZERO PUSH2 0x1B99 JUMPI PUSH2 0x1B98 PUSH2 0x197C JUMP JUMPDEST JUMPDEST PUSH1 0x20 DUP3 MUL SWAP1 POP PUSH1 0x20 DUP2 ADD SWAP1 POP SWAP2 SWAP1 POP JUMP JUMPDEST PUSH1 0x0 DUP1 REVERT JUMPDEST PUSH1 0x0 PUSH2 0x1BC2 PUSH2 0x1BBD DUP5 PUSH2 0x1B7E JUMP JUMPDEST PUSH2 0x19DC JUMP JUMPDEST SWAP1 POP DUP1 DUP4 DUP3 MSTORE PUSH1 0x20 DUP3 ADD SWAP1 POP PUSH1 0x20 DUP5 MUL DUP4 ADD DUP6 DUP2 GT ISZERO PUSH2 0x1BE5 JUMPI PUSH2 0x1BE4 PUSH2 0x1BAA JUMP JUMPDEST JUMPDEST DUP4 JUMPDEST DUP2 DUP2 LT ISZERO PUSH2 0x1C2C JUMPI DUP1 CALLDATALOAD PUSH8 0xFFFFFFFFFFFFFFFF DUP2 GT ISZERO PUSH2 0x1C0A JUMPI PUSH2 0x1C09 PUSH2 0x1972 JUMP JUMPDEST JUMPDEST DUP1 DUP7 ADD PUSH2 0x1C17 DUP10 DUP3 PUSH2 0x1A79 JUMP JUMPDEST DUP6 MSTORE PUSH1 0x20 DUP6 ADD SWAP5 POP POP POP PUSH1 0x20 DUP2 ADD SWAP1 POP PUSH2 0x1BE7 JUMP JUMPDEST POP POP POP SWAP4 SWAP3 POP POP POP JUMP JUMPDEST PUSH1 0x0 DUP3 PUSH1 0x1F DUP4 ADD SLT PUSH2 0x1C4B JUMPI PUSH2 0x1C4A PUSH2 0x1972 JUMP JUMPDEST JUMPDEST DUP2 CALLDATALOAD PUSH2 0x1C5B DUP5 DUP3 PUSH1 0x20 DUP7 ADD PUSH2 0x1BAF JUMP JUMPDEST SWAP2 POP POP SWAP3 SWAP2 POP POP JUMP JUMPDEST PUSH1 0x0 DUP1 PUSH1 0x0 DUP1 PUSH1 0x0 DUP1 PUSH1 0x0 DUP1 PUSH1 0x0 DUP1 PUSH2 0x140 DUP12 DUP14 SUB SLT ISZERO PUSH2 0x1C88 JUMPI PUSH2 0x1C87 PUSH2 0x1503 JUMP JUMPDEST JUMPDEST PUSH1 0x0 PUSH2 0x1C96 DUP14 DUP3 DUP15 ADD PUSH2 0x152E JUMP JUMPDEST SWAP11 POP POP PUSH1 0x20 DUP12 ADD CALLDATALOAD PUSH8 0xFFFFFFFFFFFFFFFF DUP2 GT ISZERO PUSH2 0x1CB7 JUMPI PUSH2 0x1CB6 PUSH2 0x1508 JUMP JUMPDEST JUMPDEST PUSH2 0x1CC3 DUP14 DUP3 DUP15 ADD PUSH2 0x1A79 JUMP JUMPDEST SWAP10 POP POP PUSH1 0x40 DUP12 ADD CALLDATALOAD PUSH8 0xFFFFFFFFFFFFFFFF DUP2 GT ISZERO PUSH2 0x1CE4 JUMPI PUSH2 0x1CE3 PUSH2 0x1508 JUMP JUMPDEST JUMPDEST PUSH2 0x1CF0 DUP14 DUP3 DUP15 ADD PUSH2 0x1A79 JUMP JUMPDEST SWAP9 POP POP PUSH1 0x60 DUP12 ADD CALLDATALOAD PUSH8 0xFFFFFFFFFFFFFFFF DUP2 GT ISZERO PUSH2 0x1D11 JUMPI PUSH2 0x1D10 PUSH2 0x1508 JUMP JUMPDEST JUMPDEST PUSH2 0x1D1D DUP14 DUP3 DUP15 ADD PUSH2 0x1C36 JUMP JUMPDEST SWAP8 POP POP PUSH1 0x80 PUSH2 0x1D2E DUP14 DUP3 DUP15 ADD PUSH2 0x152E JUMP JUMPDEST SWAP7 POP POP PUSH1 0xA0 DUP12 ADD CALLDATALOAD PUSH8 0xFFFFFFFFFFFFFFFF DUP2 GT ISZERO PUSH2 0x1D4F JUMPI PUSH2 0x1D4E PUSH2 0x1508 JUMP JUMPDEST JUMPDEST PUSH2 0x1D5B DUP14 DUP3 DUP15 ADD PUSH2 0x1A79 JUMP JUMPDEST SWAP6 POP POP PUSH1 0xC0 DUP12 ADD CALLDATALOAD PUSH8 0xFFFFFFFFFFFFFFFF DUP2 GT ISZERO PUSH2 0x1D7C JUMPI PUSH2 0x1D7B PUSH2 0x1508 JUMP JUMPDEST JUMPDEST PUSH2 0x1D88 DUP14 DUP3 DUP15 ADD PUSH2 0x1A79 JUMP JUMPDEST SWAP5 POP POP PUSH1 0xE0 PUSH2 0x1D99 DUP14 DUP3 DUP15 ADD PUSH2 0x152E JUMP JUMPDEST SWAP4 POP POP PUSH2 0x100 DUP12 ADD CALLDATALOAD PUSH8 0xFFFFFFFFFFFFFFFF DUP2 GT ISZERO PUSH2 0x1DBB JUMPI PUSH2 0x1DBA PUSH2 0x1508 JUMP JUMPDEST JUMPDEST PUSH2 0x1DC7 DUP14 DUP3 DUP15 ADD PUSH2 0x1A79 JUMP JUMPDEST SWAP3 POP POP PUSH2 0x120 DUP12 ADD CALLDATALOAD PUSH8 0xFFFFFFFFFFFFFFFF DUP2 GT ISZERO PUSH2 0x1DE9 JUMPI PUSH2 0x1DE8 PUSH2 0x1508 JUMP JUMPDEST JUMPDEST PUSH2 0x1DF5 DUP14 DUP3 DUP15 ADD PUSH2 0x1A79 JUMP JUMPDEST SWAP2 POP POP SWAP3 SWAP6 SWAP9 SWAP12 SWAP2 SWAP5 SWAP8 SWAP11 POP SWAP3 SWAP6 SWAP9 POP JUMP JUMPDEST PUSH2 0x1E10 DUP2 PUSH2 0x150D JUMP JUMPDEST DUP3 MSTORE POP POP JUMP JUMPDEST PUSH2 0x1E1F DUP2 PUSH2 0x16FA JUMP JUMPDEST DUP3 MSTORE POP POP JUMP JUMPDEST PUSH2 0x1E2E DUP2 PUSH2 0x171B JUMP JUMPDEST DUP3 MSTORE POP POP JUMP JUMPDEST PUSH1 0x0 PUSH2 0x160 DUP3 ADD SWAP1 POP PUSH2 0x1E4A PUSH1 0x0 DUP4 ADD DUP15 PUSH2 0x1E07 JUMP JUMPDEST DUP2 DUP2 SUB PUSH1 0x20 DUP4 ADD MSTORE PUSH2 0x1E5C DUP2 DUP14 PUSH2 0x1897 JUMP JUMPDEST SWAP1 POP DUP2 DUP2 SUB PUSH1 0x40 DUP4 ADD MSTORE PUSH2 0x1E70 DUP2 DUP13 PUSH2 0x1897 JUMP JUMPDEST SWAP1 POP PUSH2 0x1E7F PUSH1 0x60 DUP4 ADD DUP12 PUSH2 0x1E07 JUMP JUMPDEST DUP2 DUP2 SUB PUSH1 0x80 DUP4 ADD MSTORE PUSH2 0x1E91 DUP2 DUP11 PUSH2 0x1897 JUMP JUMPDEST SWAP1 POP DUP2 DUP2 SUB PUSH1 0xA0 DUP4 ADD MSTORE PUSH2 0x1EA5 DUP2 DUP10 PUSH2 0x1897 JUMP JUMPDEST SWAP1 POP PUSH2 0x1EB4 PUSH1 0xC0 DUP4 ADD DUP9 PUSH2 0x1E07 JUMP JUMPDEST DUP2 DUP2 SUB PUSH1 0xE0 DUP4 ADD MSTORE PUSH2 0x1EC6 DUP2 DUP8 PUSH2 0x1897 JUMP JUMPDEST SWAP1 POP DUP2 DUP2 SUB PUSH2 0x100 DUP4 ADD MSTORE PUSH2 0x1EDB DUP2 DUP7 PUSH2 0x1897 JUMP JUMPDEST SWAP1 POP PUSH2 0x1EEB PUSH2 0x120 DUP4 ADD DUP6 PUSH2 0x1E16 JUMP JUMPDEST PUSH2 0x1EF9 PUSH2 0x140 DUP4 ADD DUP5 PUSH2 0x1E25 JUMP JUMPDEST SWAP13 SWAP12 POP POP POP POP POP POP POP POP POP POP POP POP JUMP JUMPDEST PUSH1 0x0 PUSH1 0x60 DUP3 ADD SWAP1 POP PUSH2 0x1F1E PUSH1 0x0 DUP4 ADD DUP7 PUSH2 0x1E07 JUMP JUMPDEST PUSH2 0x1F2B PUSH1 0x20 DUP4 ADD DUP6 PUSH2 0x1E07 JUMP JUMPDEST PUSH2 0x1F38 PUSH1 0x40 DUP4 ADD DUP5 PUSH2 0x1E07 JUMP JUMPDEST SWAP5 SWAP4 POP POP POP POP JUMP JUMPDEST PUSH1 0x0 DUP1 PUSH1 0x0 DUP1 PUSH1 0x80 DUP6 DUP8 SUB SLT ISZERO PUSH2 0x1F5A JUMPI PUSH2 0x1F59 PUSH2 0x1503 JUMP JUMPDEST JUMPDEST PUSH1 0x0 PUSH2 0x1F68 DUP8 DUP3 DUP9 ADD PUSH2 0x152E JUMP JUMPDEST SWAP5 POP POP PUSH1 0x20 PUSH2 0x1F79 DUP8 DUP3 DUP9 ADD PUSH2 0x152E JUMP JUMPDEST SWAP4 POP POP PUSH1 0x40 PUSH2 0x1F8A DUP8 DUP3 DUP9 ADD PUSH2 0x152E JUMP JUMPDEST SWAP3 POP POP PUSH1 0x60 PUSH2 0x1F9B DUP8 DUP3 DUP9 ADD PUSH2 0x152E JUMP JUMPDEST SWAP2 POP POP SWAP3 SWAP6 SWAP2 SWAP5 POP SWAP3 POP JUMP JUMPDEST PUSH32 0x4E487B7100000000000000000000000000000000000000000000000000000000 PUSH1 0x0 MSTORE PUSH1 0x32 PUSH1 0x4 MSTORE PUSH1 0x24 PUSH1 0x0 REVERT JUMPDEST PUSH32 0x4E487B7100000000000000000000000000000000000000000000000000000000 PUSH1 0x0 MSTORE PUSH1 0x22 PUSH1 0x4 MSTORE PUSH1 0x24 PUSH1 0x0 REVERT JUMPDEST PUSH1 0x0 PUSH1 0x2 DUP3 DIV SWAP1 POP PUSH1 0x1 DUP3 AND DUP1 PUSH2 0x201D JUMPI PUSH1 0x7F DUP3 AND SWAP2 POP JUMPDEST PUSH1 0x20 DUP3 LT DUP2 EQ ISZERO PUSH2 0x2031 JUMPI PUSH2 0x2030 PUSH2 0x1FD6 JUMP JUMPDEST JUMPDEST POP SWAP2 SWAP1 POP JUMP JUMPDEST PUSH1 0x0 DUP2 SWAP1 POP SWAP3 SWAP2 POP POP JUMP JUMPDEST PUSH1 0x0 PUSH2 0x204D DUP3 PUSH2 0x157F JUMP JUMPDEST PUSH2 0x2057 DUP2 DUP6 PUSH2 0x2037 JUMP JUMPDEST SWAP4 POP PUSH2 0x2067 DUP2 DUP6 PUSH1 0x20 DUP7 ADD PUSH2 0x159B JUMP JUMPDEST DUP1 DUP5 ADD SWAP2 POP POP SWAP3 SWAP2 POP POP JUMP JUMPDEST PUSH1 0x0 PUSH2 0x207F DUP3 DUP5 PUSH2 0x2042 JUMP JUMPDEST SWAP2 POP DUP2 SWAP1 POP SWAP3 SWAP2 POP POP JUMP JUMPDEST PUSH1 0x0 DUP3 DUP3 MSTORE PUSH1 0x20 DUP3 ADD SWAP1 POP SWAP3 SWAP2 POP POP JUMP JUMPDEST PUSH1 0x0 PUSH2 0x20A6 DUP3 PUSH2 0x1618 JUMP JUMPDEST PUSH2 0x20B0 DUP2 DUP6 PUSH2 0x208A JUMP JUMPDEST SWAP4 POP DUP4 PUSH1 0x20 DUP3 MUL DUP6 ADD PUSH2 0x20C2 DUP6 PUSH2 0x1634 JUMP JUMPDEST DUP1 PUSH1 0x0 JUMPDEST DUP6 DUP2 LT ISZERO PUSH2 0x20FE JUMPI DUP5 DUP5 SUB DUP10 MSTORE DUP2 MLOAD PUSH2 0x20DF DUP6 DUP3 PUSH2 0x1644 JUMP JUMPDEST SWAP5 POP PUSH2 0x20EA DUP4 PUSH2 0x1658 JUMP JUMPDEST SWAP3 POP PUSH1 0x20 DUP11 ADD SWAP10 POP POP PUSH1 0x1 DUP2 ADD SWAP1 POP PUSH2 0x20C6 JUMP JUMPDEST POP DUP3 SWAP8 POP DUP8 SWAP6 POP POP POP POP POP POP SWAP3 SWAP2 POP POP JUMP JUMPDEST PUSH1 0x0 PUSH2 0x160 DUP3 ADD SWAP1 POP PUSH2 0x2126 PUSH1 0x0 DUP4 ADD DUP15 PUSH2 0x1E07 JUMP JUMPDEST DUP2 DUP2 SUB PUSH1 0x20 DUP4 ADD MSTORE PUSH2 0x2138 DUP2 DUP14 PUSH2 0x1897 JUMP JUMPDEST SWAP1 POP DUP2 DUP2 SUB PUSH1 0x40 DUP4 ADD MSTORE PUSH2 0x214C DUP2 DUP13 PUSH2 0x1897 JUMP JUMPDEST SWAP1 POP DUP2 DUP2 SUB PUSH1 0x60 DUP4 ADD MSTORE PUSH2 0x2160 DUP2 DUP12 PUSH2 0x209B JUMP JUMPDEST SWAP1 POP PUSH2 0x216F PUSH1 0x80 DUP4 ADD DUP11 PUSH2 0x1E07 JUMP JUMPDEST DUP2 DUP2 SUB PUSH1 0xA0 DUP4 ADD MSTORE PUSH2 0x2181 DUP2 DUP10 PUSH2 0x1897 JUMP JUMPDEST SWAP1 POP DUP2 DUP2 SUB PUSH1 0xC0 DUP4 ADD MSTORE PUSH2 0x2195 DUP2 DUP9 PUSH2 0x1897 JUMP JUMPDEST SWAP1 POP PUSH2 0x21A4 PUSH1 0xE0 DUP4 ADD DUP8 PUSH2 0x1E07 JUMP JUMPDEST DUP2 DUP2 SUB PUSH2 0x100 DUP4 ADD MSTORE PUSH2 0x21B7 DUP2 DUP7 PUSH2 0x1897 JUMP JUMPDEST SWAP1 POP DUP2 DUP2 SUB PUSH2 0x120 DUP4 ADD MSTORE PUSH2 0x21CC DUP2 DUP6 PUSH2 0x1897 JUMP JUMPDEST SWAP1 POP PUSH2 0x21DC PUSH2 0x140 DUP4 ADD DUP5 PUSH2 0x18FB JUMP JUMPDEST SWAP13 SWAP12 POP POP POP POP POP POP POP POP POP POP POP POP JUMP JUMPDEST PUSH32 0x4E487B7100000000000000000000000000000000000000000000000000000000 PUSH1 0x0 MSTORE PUSH1 0x11 PUSH1 0x4 MSTORE PUSH1 0x24 PUSH1 0x0 REVERT JUMPDEST PUSH1 0x0 PUSH2 0x2226 DUP3 PUSH2 0x150D JUMP JUMPDEST SWAP2 POP PUSH2 0x2231 DUP4 PUSH2 0x150D JUMP JUMPDEST SWAP3 POP DUP3 DUP3 LT ISZERO PUSH2 0x2244 JUMPI PUSH2 0x2243 PUSH2 0x21EC JUMP JUMPDEST JUMPDEST DUP3 DUP3 SUB SWAP1 POP SWAP3 SWAP2 POP POP JUMP JUMPDEST PUSH1 0x0 PUSH2 0x225A DUP3 PUSH2 0x150D JUMP JUMPDEST SWAP2 POP PUSH2 0x2265 DUP4 PUSH2 0x150D JUMP JUMPDEST SWAP3 POP DUP2 PUSH32 0xFFFFFFFFFFFFFFFFFFFFFFFFFFFFFFFFFFFFFFFFFFFFFFFFFFFFFFFFFFFFFFFF DIV DUP4 GT DUP3 ISZERO ISZERO AND ISZERO PUSH2 0x229E JUMPI PUSH2 0x229D PUSH2 0x21EC JUMP JUMPDEST JUMPDEST DUP3 DUP3 MUL SWAP1 POP SWAP3 SWAP2 POP POP JUMP INVALID LOG2 PUSH5 0x6970667358 0x22 SLT KECCAK256 TIMESTAMP NUMBER DUP5 DUP12 0xE7 PUSH23 0x45CAA988EE2D5314FF1E8550B97430203FD68B4D0BED4F PUSH13 0x7B8764736F6C63430008080033 "},"gasEstimates":{"creation":{"codeDepositCost":"1785400","executionCost":"1877","totalCost":"1787277"},"external":{"bookRental(uint256,uint256,uint256,uint256)":"infinite","bookedRentalInfo(uint256)":"infinite","createRental(uint256,string,string,string[],uint256,string,string,uint256,string,string)":"infinite","createUser(string,string,string,string)":"infinite","getRentalDetails(uint256)":"infinite","listedRentals(uint256)":"infinite","users(uint256)":"infinite"}},"methodIdentifiers":{"bookRental(uint256,uint256,uint256,uint256)":"eaca35b7","bookedRentalInfo(uint256)":"e5806fdc","createRental(uint256,string,string,string[],uint256,string,string,uint256,string,string)":"ab12d3bb","createUser(string,string,string,string)":"6f7fcddb","getRentalDetails(uint256)":"17088b34","listedRentals(uint256)":"ad513a6e","users(uint256)":"365b98b2"}},"storageLayout":{"storage":[{"astId":95,"contract":"contracts/dairbnb.sol:dairbnb","label":"id_to_rentalDetails","offset":0,"slot":"0","type":"t_mapping(t_uint256,t_struct(rentalDetails)83_storage)"},{"astId":103,"contract":"contracts/dairbnb.sol:dairbnb","label":"users","offset":0,"slot":"1","type":"t_array(t_struct(userDetails)57_storage)dyn_storage"},{"astId":107,"contract":"contracts/dairbnb.sol:dairbnb","label":"listedRentals","offset":0,"slot":"2","type":"t_array(t_struct(rentalDetails)83_storage)dyn_storage"},{"astId":111,"contract":"contracts/dairbnb.sol:dairbnb","label":"bookedRentalInfo","offset":0,"slot":"3","type":"t_array(t_struct(bookedRentalDetails)90_storage)dyn_storage"}],"types":{"t_address":{"encoding":"inplace","label":"address","numberOfBytes":"20"},"t_address_payable":{"encoding":"inplace","label":"address payable","numberOfBytes":"20"},"t_array(t_string_storage)dyn_storage":{"base":"t_string_storage","encoding":"dynamic_array","label":"string[]","numberOfBytes":"32"},"t_array(t_struct(bookedRentalDetails)90_storage)dyn_storage":{"base":"t_struct(bookedRentalDetails)90_storage","encoding":"dynamic_array","label":"struct dairbnb.bookedRentalDetails[]","numberOfBytes":"32"},"t_array(t_struct(rentalDetails)83_storage)dyn_storage":{"base":"t_struct(rentalDetails)83_storage","encoding":"dynamic_array","label":"struct dairbnb.rentalDetails[]","numberOfBytes":"32"},"t_array(t_struct(userDetails)57_storage)dyn_storage":{"base":"t_struct(userDetails)57_storage","encoding":"dynamic_array","label":"struct dairbnb.userDetails[]","numberOfBytes":"32"},"t_bool":{"encoding":"inplace","label":"bool","numberOfBytes":"1"},"t_bytes32":{"encoding":"inplace","label":"bytes32","numberOfBytes":"32"},"t_mapping(t_uint256,t_struct(rentalDetails)83_storage)":{"encoding":"mapping","key":"t_uint256","label":"mapping(uint256 => struct dairbnb.rentalDetails)","numberOfBytes":"32","value":"t_struct(rentalDetails)83_storage"},"t_string_storage":{"encoding":"bytes","label":"string","numberOfBytes":"32"},"t_struct(bookedRentalDetails)90_storage":{"encoding":"inplace","label":"struct dairbnb.bookedRentalDetails","members":[{"astId":85,"contract":"contracts/dairbnb.sol:dairbnb","label":"noOfGuests","offset":0,"slot":"0","type":"t_uint256"},{"astId":87,"contract":"contracts/dairbnb.sol:dairbnb","label":"startDate","offset":0,"slot":"1","type":"t_uint256"},{"astId":89,"contract":"contracts/dairbnb.sol:dairbnb","label":"endDate","offset":0,"slot":"2","type":"t_uint256"}],"numberOfBytes":"96"},"t_struct(rentalDetails)83_storage":{"encoding":"inplace","label":"struct dairbnb.rentalDetails","members":[{"astId":59,"contract":"contracts/dairbnb.sol:dairbnb","label":"rentalId","offset":0,"slot":"0","type":"t_uint256"},{"astId":61,"contract":"contracts/dairbnb.sol:dairbnb","label":"name","offset":0,"slot":"1","type":"t_string_storage"},{"astId":63,"contract":"contracts/dairbnb.sol:dairbnb","label":"description","offset":0,"slot":"2","type":"t_string_storage"},{"astId":66,"contract":"contracts/dairbnb.sol:dairbnb","label":"imageURLs","offset":0,"slot":"3","type":"t_array(t_string_storage)dyn_storage"},{"astId":68,"contract":"contracts/dairbnb.sol:dairbnb","label":"pricePerNight","offset":0,"slot":"4","type":"t_uint256"},{"astId":70,"contract":"contracts/dairbnb.sol:dairbnb","label":"contact","offset":0,"slot":"5","type":"t_string_storage"},{"astId":72,"contract":"contracts/dairbnb.sol:dairbnb","label":"rentalAddress","offset":0,"slot":"6","type":"t_string_storage"},{"astId":74,"contract":"contracts/dairbnb.sol:dairbnb","label":"maxGuests","offset":0,"slot":"7","type":"t_uint256"},{"astId":76,"contract":"contracts/dairbnb.sol:dairbnb","label":"city","offset":0,"slot":"8","type":"t_string_storage"},{"astId":78,"contract":"contracts/dairbnb.sol:dairbnb","label":"country","offset":0,"slot":"9","type":"t_string_storage"},{"astId":80,"contract":"contracts/dairbnb.sol:dairbnb","label":"owner","offset":0,"slot":"10","type":"t_address_payable"},{"astId":82,"contract":"contracts/dairbnb.sol:dairbnb","label":"isbooked","offset":20,"slot":"10","type":"t_bool"}],"numberOfBytes":"352"},"t_struct(userDetails)57_storage":{"encoding":"inplace","label":"struct dairbnb.userDetails","members":[{"astId":48,"contract":"contracts/dairbnb.sol:dairbnb","label":"name","offset":0,"slot":"0","type":"t_string_storage"},{"astId":50,"contract":"contracts/dairbnb.sol:dairbnb","label":"dateOfBirth","offset":0,"slot":"1","type":"t_string_storage"},{"astId":52,"contract":"contracts/dairbnb.sol:dairbnb","label":"country","offset":0,"slot":"2","type":"t_string_storage"},{"astId":54,"contract":"contracts/dairbnb.sol:dairbnb","label":"hashedPassword","offset":0,"slot":"3","type":"t_bytes32"},{"astId":56,"contract":"contracts/dairbnb.sol:dairbnb","label":"userAddress","offset":0,"slot":"4","type":"t_address"}],"numberOfBytes":"160"},"t_uint256":{"encoding":"inplace","label":"uint256","numberOfBytes":"32"}}},"userdoc":{"kind":"user","methods":{},"version":1}}}}